{
  "abi": [
    {
      "inputs": [
        {
          "internalType": "contract IERC721",
          "name": "_nftCollection",
          "type": "address"
        },
        {
          "internalType": "contract IERC20",
          "name": "_rewardToken",
          "type": "address"
        }
      ],
      "stateMutability": "nonpayable",
      "type": "constructor"
    },
    {
      "inputs": [
        {
          "internalType": "address",
          "name": "_staker",
          "type": "address"
        }
      ],
      "name": "availableRewards",
      "outputs": [
        {
          "internalType": "uint256",
          "name": "",
          "type": "uint256"
        }
      ],
      "stateMutability": "view",
      "type": "function"
    },
    {
      "inputs": [],
      "name": "claimRewards",
      "outputs": [],
      "stateMutability": "nonpayable",
      "type": "function"
    },
    {
      "inputs": [
        {
          "internalType": "address",
          "name": "_user",
          "type": "address"
        }
      ],
      "name": "getStakedTokens",
      "outputs": [
        {
          "components": [
            {
              "internalType": "address",
              "name": "staker",
              "type": "address"
            },
            {
              "internalType": "uint256",
              "name": "tokenId",
              "type": "uint256"
            }
          ],
          "internalType": "struct ERC721Staking.StakedToken[]",
          "name": "",
          "type": "tuple[]"
        }
      ],
      "stateMutability": "view",
      "type": "function"
    },
    {
      "inputs": [],
      "name": "nftCollection",
      "outputs": [
        {
          "internalType": "contract IERC721",
          "name": "",
          "type": "address"
        }
      ],
      "stateMutability": "view",
      "type": "function"
    },
    {
      "inputs": [],
      "name": "rewardToken",
      "outputs": [
        {
          "internalType": "contract IERC20",
          "name": "",
          "type": "address"
        }
      ],
      "stateMutability": "view",
      "type": "function"
    },
    {
      "inputs": [
        {
          "internalType": "uint256",
          "name": "_tokenId",
          "type": "uint256"
        }
      ],
      "name": "stakeToken",
      "outputs": [],
      "stateMutability": "nonpayable",
      "type": "function"
    },
    {
      "inputs": [
        {
          "internalType": "uint256",
          "name": "",
          "type": "uint256"
        }
      ],
      "name": "stakerAddress",
      "outputs": [
        {
          "internalType": "address",
          "name": "",
          "type": "address"
        }
      ],
      "stateMutability": "view",
      "type": "function"
    },
    {
      "inputs": [
        {
          "internalType": "address",
          "name": "",
          "type": "address"
        }
      ],
      "name": "stakers",
      "outputs": [
        {
          "internalType": "uint256",
          "name": "amountStaked",
          "type": "uint256"
        },
        {
          "internalType": "uint256",
          "name": "timeOfLastUpdate",
          "type": "uint256"
        },
        {
          "internalType": "uint256",
          "name": "unclaimedRewards",
          "type": "uint256"
        }
      ],
      "stateMutability": "view",
      "type": "function"
    },
    {
      "inputs": [
        {
          "internalType": "uint256",
          "name": "_tokenId",
          "type": "uint256"
        }
      ],
      "name": "withdrawToken",
      "outputs": [],
      "stateMutability": "nonpayable",
      "type": "function"
    }
  ],
  "devdoc": {
    "kind": "dev",
    "methods": {},
    "version": 1
  },
  "evm": {
    "assembly": "    /* \"NftStaking.sol\":313:4850  contract ERC721Staking is ReentrancyGuard {... */\n  mstore(0x40, 0xc0)\n    /* \"NftStaking.sol\":1113:1119  100000 */\n  0x0186a0\n    /* \"NftStaking.sol\":1080:1119  uint256 private rewardsPerHour = 100000 */\n  0x01\n  sstore\n    /* \"NftStaking.sol\":601:744  constructor(IERC721 _nftCollection, IERC20 _rewardToken) {... */\n  callvalue\n  dup1\n  iszero\n  tag_1\n  jumpi\n  0x00\n  dup1\n  revert\ntag_1:\n  pop\n  mload(0x40)\n  sub(codesize, bytecodeSize)\n  dup1\n  bytecodeSize\n  dup4\n  codecopy\n  dup2\n  add\n  0x40\n  dup2\n  swap1\n  mstore\n  tag_2\n  swap2\n  tag_3\n  jump\t// in\ntag_2:\n    /* \"@openzeppelin/contracts/security/ReentrancyGuard.sol\":1716:1717   */\n  0x01\n    /* \"@openzeppelin/contracts/security/ReentrancyGuard.sol\":1821:1828   */\n  0x00\n    /* \"@openzeppelin/contracts/security/ReentrancyGuard.sol\":1821:1843   */\n  sstore\n  sub(shl(0xa0, 0x01), 0x01)\n    /* \"NftStaking.sol\":669:699  nftCollection = _nftCollection */\n  swap2\n  dup3\n  and\n  0xa0\n  mstore\n    /* \"NftStaking.sol\":710:736  rewardToken = _rewardToken */\n  and\n  0x80\n  mstore\n    /* \"NftStaking.sol\":313:4850  contract ERC721Staking is ReentrancyGuard {... */\n  jump(tag_10)\n    /* \"#utility.yul\":14:154   */\ntag_9:\n  sub(shl(0xa0, 0x01), 0x01)\n    /* \"#utility.yul\":98:129   */\n  dup2\n  and\n    /* \"#utility.yul\":88:130   */\n  dup2\n  eq\n    /* \"#utility.yul\":78:148   */\n  tag_12\n  jumpi\n    /* \"#utility.yul\":144:145   */\n  0x00\n    /* \"#utility.yul\":141:142   */\n  dup1\n    /* \"#utility.yul\":134:146   */\n  revert\n    /* \"#utility.yul\":78:148   */\ntag_12:\n    /* \"#utility.yul\":14:154   */\n  pop\n  jump\t// out\n    /* \"#utility.yul\":159:592   */\ntag_3:\n    /* \"#utility.yul\":268:274   */\n  0x00\n    /* \"#utility.yul\":276:282   */\n  dup1\n    /* \"#utility.yul\":329:331   */\n  0x40\n    /* \"#utility.yul\":317:326   */\n  dup4\n    /* \"#utility.yul\":308:315   */\n  dup6\n    /* \"#utility.yul\":304:327   */\n  sub\n    /* \"#utility.yul\":300:332   */\n  slt\n    /* \"#utility.yul\":297:349   */\n  iszero\n  tag_14\n  jumpi\n    /* \"#utility.yul\":345:346   */\n  0x00\n    /* \"#utility.yul\":342:343   */\n  dup1\n    /* \"#utility.yul\":335:347   */\n  revert\n    /* \"#utility.yul\":297:349   */\ntag_14:\n    /* \"#utility.yul\":377:386   */\n  dup3\n    /* \"#utility.yul\":371:387   */\n  mload\n    /* \"#utility.yul\":396:436   */\n  tag_15\n    /* \"#utility.yul\":430:435   */\n  dup2\n    /* \"#utility.yul\":396:436   */\n  tag_9\n  jump\t// in\ntag_15:\n    /* \"#utility.yul\":505:507   */\n  0x20\n    /* \"#utility.yul\":490:508   */\n  dup5\n  add\n    /* \"#utility.yul\":484:509   */\n  mload\n    /* \"#utility.yul\":455:460   */\n  swap1\n  swap3\n  pop\n    /* \"#utility.yul\":518:560   */\n  tag_16\n    /* \"#utility.yul\":484:509   */\n  dup2\n    /* \"#utility.yul\":518:560   */\n  tag_9\n  jump\t// in\ntag_16:\n    /* \"#utility.yul\":579:586   */\n  dup1\n    /* \"#utility.yul\":569:586   */\n  swap2\n  pop\n  pop\n    /* \"#utility.yul\":159:592   */\n  swap3\n  pop\n  swap3\n  swap1\n  pop\n  jump\t// out\ntag_10:\n    /* \"NftStaking.sol\":313:4850  contract ERC721Staking is ReentrancyGuard {... */\n  mload(0x80)\n  mload(0xa0)\n  codecopy(0x00, dataOffset(sub_0), dataSize(sub_0))\n  0x00\n  assignImmutable(\"0x8e8fab5f003314da8d1873ea7720e8d9f47650136d916064d1edb8a11d682624\")\n  0x00\n  assignImmutable(\"0x5c4c6aa067b6f8e6cb38e6ab843832a94d1712d661a04d73c517d6a1931a9e5d\")\n  return(0x00, dataSize(sub_0))\nstop\n\nsub_0: assembly {\n        /* \"NftStaking.sol\":313:4850  contract ERC721Staking is ReentrancyGuard {... */\n      mstore(0x40, 0x80)\n      callvalue\n      dup1\n      iszero\n      tag_1\n      jumpi\n      0x00\n      dup1\n      revert\n    tag_1:\n      pop\n      jumpi(tag_2, lt(calldatasize, 0x04))\n      shr(0xe0, calldataload(0x00))\n      dup1\n      0x9168ae72\n      gt\n      tag_12\n      jumpi\n      dup1\n      0xcda6b847\n      gt\n      tag_13\n      jumpi\n      dup1\n      0xcda6b847\n      eq\n      tag_9\n      jumpi\n      dup1\n      0xf7c618c1\n      eq\n      tag_10\n      jumpi\n      dup1\n      0xf854a27f\n      eq\n      tag_11\n      jumpi\n      0x00\n      dup1\n      revert\n    tag_13:\n      dup1\n      0x9168ae72\n      eq\n      tag_7\n      jumpi\n      dup1\n      0x94067045\n      eq\n      tag_8\n      jumpi\n      0x00\n      dup1\n      revert\n    tag_12:\n      dup1\n      0x372500ab\n      eq\n      tag_3\n      jumpi\n      dup1\n      0x50baa622\n      eq\n      tag_4\n      jumpi\n      dup1\n      0x63c28db1\n      eq\n      tag_5\n      jumpi\n      dup1\n      0x6588103b\n      eq\n      tag_6\n      jumpi\n    tag_2:\n      0x00\n      dup1\n      revert\n        /* \"NftStaking.sol\":3186:3575  function claimRewards () external {... */\n    tag_3:\n      tag_14\n      tag_15\n      jump\t// in\n    tag_14:\n      stop\n        /* \"NftStaking.sol\":2059:3144  function withdrawToken(uint256 _tokenId) external nonReentrant {... */\n    tag_4:\n      tag_14\n      tag_17\n      calldatasize\n      0x04\n      tag_18\n      jump\t// in\n    tag_17:\n      tag_19\n      jump\t// in\n        /* \"NftStaking.sol\":4157:4847  function getStakedTokens(address _user) public view returns(StakedToken[] memory) {... */\n    tag_5:\n      tag_20\n      tag_21\n      calldatasize\n      0x04\n      tag_22\n      jump\t// in\n    tag_21:\n      tag_23\n      jump\t// in\n    tag_20:\n      mload(0x40)\n      tag_24\n      swap2\n      swap1\n      tag_25\n      jump\t// in\n    tag_24:\n      mload(0x40)\n      dup1\n      swap2\n      sub\n      swap1\n      return\n        /* \"NftStaking.sol\":490:528  IERC721 public immutable nftCollection */\n    tag_6:\n      tag_26\n      immutable(\"0x8e8fab5f003314da8d1873ea7720e8d9f47650136d916064d1edb8a11d682624\")\n      dup2\n      jump\n    tag_26:\n      mload(0x40)\n      sub(shl(0xa0, 0x01), 0x01)\n        /* \"#utility.yul\":1636:1691   */\n      swap1\n      swap2\n      and\n        /* \"#utility.yul\":1618:1692   */\n      dup2\n      mstore\n        /* \"#utility.yul\":1606:1608   */\n      0x20\n        /* \"#utility.yul\":1591:1609   */\n      add\n        /* \"NftStaking.sol\":490:528  IERC721 public immutable nftCollection */\n      tag_24\n        /* \"#utility.yul\":1456:1698   */\n      jump\n        /* \"NftStaking.sol\":1126:1167  mapping(address => Staker) public stakers */\n    tag_7:\n      tag_30\n      tag_31\n      calldatasize\n      0x04\n      tag_22\n      jump\t// in\n    tag_31:\n      0x02\n      0x20\n      dup2\n      swap1\n      mstore\n      0x00\n      swap2\n      dup3\n      mstore\n      0x40\n      swap1\n      swap2\n      keccak256\n      dup1\n      sload\n      swap2\n      dup2\n      add\n      sload\n      0x03\n      swap1\n      swap2\n      add\n      sload\n      dup4\n      jump\n    tag_30:\n      0x40\n      dup1\n      mload\n        /* \"#utility.yul\":1905:1930   */\n      swap4\n      dup5\n      mstore\n        /* \"#utility.yul\":1961:1963   */\n      0x20\n        /* \"#utility.yul\":1946:1964   */\n      dup5\n      add\n        /* \"#utility.yul\":1939:1973   */\n      swap3\n      swap1\n      swap3\n      mstore\n        /* \"#utility.yul\":1989:2007   */\n      swap1\n      dup3\n      add\n        /* \"#utility.yul\":1982:2016   */\n      mstore\n        /* \"#utility.yul\":1893:1895   */\n      0x60\n        /* \"#utility.yul\":1878:1896   */\n      add\n        /* \"NftStaking.sol\":1126:1167  mapping(address => Staker) public stakers */\n      tag_24\n        /* \"#utility.yul\":1703:2022   */\n      jump\n        /* \"NftStaking.sol\":1174:1222  mapping(uint256 => address) public stakerAddress */\n    tag_8:\n      tag_26\n      tag_36\n      calldatasize\n      0x04\n      tag_18\n      jump\t// in\n    tag_36:\n      mstore(0x20, 0x03)\n      0x00\n      swap1\n      dup2\n      mstore\n      0x40\n      swap1\n      keccak256\n      sload\n      sub(shl(0xa0, 0x01), 0x01)\n      and\n      dup2\n      jump\n        /* \"NftStaking.sol\":1263:2012  function stakeToken(uint256 _tokenId) external nonReentrant {... */\n    tag_9:\n      tag_14\n      tag_41\n      calldatasize\n      0x04\n      tag_18\n      jump\t// in\n    tag_41:\n      tag_42\n      jump\t// in\n        /* \"NftStaking.sol\":448:483  IERC20 public immutable rewardToken */\n    tag_10:\n      tag_26\n      immutable(\"0x5c4c6aa067b6f8e6cb38e6ab843832a94d1712d661a04d73c517d6a1931a9e5d\")\n      dup2\n      jump\n        /* \"NftStaking.sol\":3914:4109  function availableRewards(address _staker) public view returns(uint256) {... */\n    tag_11:\n      tag_47\n      tag_48\n      calldatasize\n      0x04\n      tag_22\n      jump\t// in\n    tag_48:\n      tag_49\n      jump\t// in\n    tag_47:\n      mload(0x40)\n        /* \"#utility.yul\":2649:2674   */\n      swap1\n      dup2\n      mstore\n        /* \"#utility.yul\":2637:2639   */\n      0x20\n        /* \"#utility.yul\":2622:2640   */\n      add\n        /* \"NftStaking.sol\":3914:4109  function availableRewards(address _staker) public view returns(uint256) {... */\n      tag_24\n        /* \"#utility.yul\":2503:2680   */\n      jump\n        /* \"NftStaking.sol\":3186:3575  function claimRewards () external {... */\n    tag_15:\n        /* \"NftStaking.sol\":3288:3298  msg.sender */\n      caller\n        /* \"NftStaking.sol\":3231:3246  uint256 rewards */\n      0x00\n        /* \"NftStaking.sol\":3280:3299  stakers[msg.sender] */\n      dup2\n      dup2\n      mstore\n        /* \"NftStaking.sol\":3280:3287  stakers */\n      0x02\n        /* \"NftStaking.sol\":3280:3299  stakers[msg.sender] */\n      0x20\n      mstore\n      0x40\n      dup2\n      keccak256\n        /* \"NftStaking.sol\":3280:3316  stakers[msg.sender].unclaimedRewards */\n      0x03\n      add\n      sload\n        /* \"NftStaking.sol\":3231:3246  uint256 rewards */\n      swap1\n      swap2\n        /* \"NftStaking.sol\":3249:3277  calculateRewards(msg.sender) */\n      tag_53\n      swap1\n        /* \"NftStaking.sol\":3249:3265  calculateRewards */\n      tag_54\n        /* \"NftStaking.sol\":3249:3277  calculateRewards(msg.sender) */\n      jump\t// in\n    tag_53:\n        /* \"NftStaking.sol\":3249:3316  calculateRewards(msg.sender) + stakers[msg.sender].unclaimedRewards */\n      tag_55\n      swap2\n      swap1\n      tag_56\n      jump\t// in\n    tag_55:\n        /* \"NftStaking.sol\":3231:3316  uint256 rewards = calculateRewards(msg.sender) + stakers[msg.sender].unclaimedRewards */\n      swap1\n      pop\n        /* \"NftStaking.sol\":3347:3348  0 */\n      0x00\n        /* \"NftStaking.sol\":3337:3344  rewards */\n      dup2\n        /* \"NftStaking.sol\":3337:3348  rewards > 0 */\n      gt\n        /* \"NftStaking.sol\":3329:3388  require(rewards > 0, \"You don't have any rewards to claim\") */\n      tag_57\n      jumpi\n      mload(0x40)\n      shl(0xe5, 0x461bcd)\n      dup2\n      mstore\n        /* \"#utility.yul\":3149:3151   */\n      0x20\n        /* \"NftStaking.sol\":3329:3388  require(rewards > 0, \"You don't have any rewards to claim\") */\n      0x04\n      dup3\n      add\n        /* \"#utility.yul\":3131:3152   */\n      mstore\n        /* \"#utility.yul\":3188:3190   */\n      0x23\n        /* \"#utility.yul\":3168:3186   */\n      0x24\n      dup3\n      add\n        /* \"#utility.yul\":3161:3191   */\n      mstore\n        /* \"#utility.yul\":3227:3261   */\n      0x596f7520646f6e2774206861766520616e79207265776172647320746f20636c\n        /* \"#utility.yul\":3207:3225   */\n      0x44\n      dup3\n      add\n        /* \"#utility.yul\":3200:3262   */\n      mstore\n      shl(0xe8, 0x61696d)\n        /* \"#utility.yul\":3278:3296   */\n      0x64\n      dup3\n      add\n        /* \"#utility.yul\":3271:3304   */\n      mstore\n        /* \"#utility.yul\":3321:3340   */\n      0x84\n      add\n        /* \"NftStaking.sol\":3329:3388  require(rewards > 0, \"You don't have any rewards to claim\") */\n    tag_58:\n      mload(0x40)\n      dup1\n      swap2\n      sub\n      swap1\n      revert\n    tag_57:\n        /* \"NftStaking.sol\":3409:3419  msg.sender */\n      caller\n        /* \"NftStaking.sol\":3401:3420  stakers[msg.sender] */\n      0x00\n      dup2\n      dup2\n      mstore\n        /* \"NftStaking.sol\":3401:3408  stakers */\n      0x02\n        /* \"NftStaking.sol\":3401:3420  stakers[msg.sender] */\n      0x20\n      dup2\n      swap1\n      mstore\n      0x40\n      dup3\n      keccak256\n        /* \"NftStaking.sol\":3440:3455  block.timestamp */\n      timestamp\n        /* \"NftStaking.sol\":3401:3437  stakers[msg.sender].timeOfLastUpdate */\n      swap2\n      dup2\n      add\n        /* \"NftStaking.sol\":3401:3455  stakers[msg.sender].timeOfLastUpdate = block.timestamp */\n      swap2\n      swap1\n      swap2\n      sstore\n        /* \"NftStaking.sol\":3469:3505  stakers[msg.sender].unclaimedRewards */\n      0x03\n      add\n        /* \"NftStaking.sol\":3469:3509  stakers[msg.sender].unclaimedRewards = 0 */\n      sstore\n        /* \"NftStaking.sol\":3522:3567  rewardToken.safeTransfer(msg.sender, rewards) */\n      tag_60\n      swap1\n        /* \"NftStaking.sol\":3522:3533  rewardToken */\n      immutable(\"0x5c4c6aa067b6f8e6cb38e6ab843832a94d1712d661a04d73c517d6a1931a9e5d\")\n      sub(shl(0xa0, 0x01), 0x01)\n        /* \"NftStaking.sol\":3522:3546  rewardToken.safeTransfer */\n      and\n      swap1\n        /* \"NftStaking.sol\":3559:3566  rewards */\n      dup4\n        /* \"NftStaking.sol\":3522:3546  rewardToken.safeTransfer */\n      tag_61\n        /* \"NftStaking.sol\":3522:3567  rewardToken.safeTransfer(msg.sender, rewards) */\n      jump\t// in\n    tag_60:\n        /* \"NftStaking.sol\":3220:3575  {... */\n      pop\n        /* \"NftStaking.sol\":3186:3575  function claimRewards () external {... */\n      jump\t// out\n        /* \"NftStaking.sol\":2059:3144  function withdrawToken(uint256 _tokenId) external nonReentrant {... */\n    tag_19:\n        /* \"@openzeppelin/contracts/security/ReentrancyGuard.sol\":2261:2282   */\n      tag_63\n        /* \"@openzeppelin/contracts/security/ReentrancyGuard.sol\":2261:2280   */\n      tag_64\n        /* \"@openzeppelin/contracts/security/ReentrancyGuard.sol\":2261:2282   */\n      jump\t// in\n    tag_63:\n        /* \"NftStaking.sol\":2151:2161  msg.sender */\n      caller\n        /* \"NftStaking.sol\":2178:2179  0 */\n      0x00\n        /* \"NftStaking.sol\":2143:2162  stakers[msg.sender] */\n      swap1\n      dup2\n      mstore\n        /* \"NftStaking.sol\":2143:2150  stakers */\n      0x02\n        /* \"NftStaking.sol\":2143:2162  stakers[msg.sender] */\n      0x20\n      mstore\n      0x40\n      swap1\n      keccak256\n        /* \"NftStaking.sol\":2143:2175  stakers[msg.sender].amountStaked */\n      sload\n        /* \"NftStaking.sol\":2135:2216  require(stakers[msg.sender].amountStaked > 0, \"You don't have any tokens staked\") */\n      tag_66\n      jumpi\n      mload(0x40)\n      shl(0xe5, 0x461bcd)\n      dup2\n      mstore\n        /* \"#utility.yul\":3553:3555   */\n      0x20\n        /* \"NftStaking.sol\":2135:2216  require(stakers[msg.sender].amountStaked > 0, \"You don't have any tokens staked\") */\n      0x04\n      dup3\n      add\n        /* \"#utility.yul\":3535:3556   */\n      dup2\n      swap1\n      mstore\n        /* \"#utility.yul\":3572:3590   */\n      0x24\n      dup3\n      add\n        /* \"#utility.yul\":3565:3595   */\n      mstore\n        /* \"#utility.yul\":3631:3665   */\n      0x596f7520646f6e2774206861766520616e7920746f6b656e73207374616b6564\n        /* \"#utility.yul\":3611:3629   */\n      0x44\n      dup3\n      add\n        /* \"#utility.yul\":3604:3666   */\n      mstore\n        /* \"#utility.yul\":3683:3701   */\n      0x64\n      add\n        /* \"NftStaking.sol\":2135:2216  require(stakers[msg.sender].amountStaked > 0, \"You don't have any tokens staked\") */\n      tag_58\n        /* \"#utility.yul\":3351:3707   */\n      jump\n        /* \"NftStaking.sol\":2135:2216  require(stakers[msg.sender].amountStaked > 0, \"You don't have any tokens staked\") */\n    tag_66:\n        /* \"NftStaking.sol\":2237:2260  stakerAddress[_tokenId] */\n      0x00\n      dup2\n      dup2\n      mstore\n        /* \"NftStaking.sol\":2237:2250  stakerAddress */\n      0x03\n        /* \"NftStaking.sol\":2237:2260  stakerAddress[_tokenId] */\n      0x20\n      mstore\n      0x40\n      swap1\n      keccak256\n      sload\n      sub(shl(0xa0, 0x01), 0x01)\n      and\n        /* \"NftStaking.sol\":2264:2274  msg.sender */\n      caller\n        /* \"NftStaking.sol\":2237:2274  stakerAddress[_tokenId] == msg.sender */\n      eq\n        /* \"NftStaking.sol\":2229:2303  require(stakerAddress[_tokenId] == msg.sender, \"You don't own this token\") */\n      tag_69\n      jumpi\n      mload(0x40)\n      shl(0xe5, 0x461bcd)\n      dup2\n      mstore\n        /* \"#utility.yul\":3914:3916   */\n      0x20\n        /* \"NftStaking.sol\":2229:2303  require(stakerAddress[_tokenId] == msg.sender, \"You don't own this token\") */\n      0x04\n      dup3\n      add\n        /* \"#utility.yul\":3896:3917   */\n      mstore\n        /* \"#utility.yul\":3953:3955   */\n      0x18\n        /* \"#utility.yul\":3933:3951   */\n      0x24\n      dup3\n      add\n        /* \"#utility.yul\":3926:3956   */\n      mstore\n        /* \"#utility.yul\":3992:4018   */\n      0x596f7520646f6e2774206f776e207468697320746f6b656e0000000000000000\n        /* \"#utility.yul\":3972:3990   */\n      0x44\n      dup3\n      add\n        /* \"#utility.yul\":3965:4019   */\n      mstore\n        /* \"#utility.yul\":4036:4054   */\n      0x64\n      add\n        /* \"NftStaking.sol\":2229:2303  require(stakerAddress[_tokenId] == msg.sender, \"You don't own this token\") */\n      tag_58\n        /* \"#utility.yul\":3712:4060   */\n      jump\n        /* \"NftStaking.sol\":2229:2303  require(stakerAddress[_tokenId] == msg.sender, \"You don't own this token\") */\n    tag_69:\n        /* \"NftStaking.sol\":2316:2338  uint256 pendingRewards */\n      0x00\n        /* \"NftStaking.sol\":2341:2369  calculateRewards(msg.sender) */\n      tag_72\n        /* \"NftStaking.sol\":2358:2368  msg.sender */\n      caller\n        /* \"NftStaking.sol\":2341:2357  calculateRewards */\n      tag_54\n        /* \"NftStaking.sol\":2341:2369  calculateRewards(msg.sender) */\n      jump\t// in\n    tag_72:\n        /* \"NftStaking.sol\":2388:2398  msg.sender */\n      caller\n        /* \"NftStaking.sol\":2380:2399  stakers[msg.sender] */\n      0x00\n      swap1\n      dup2\n      mstore\n        /* \"NftStaking.sol\":2380:2387  stakers */\n      0x02\n        /* \"NftStaking.sol\":2380:2399  stakers[msg.sender] */\n      0x20\n      mstore\n      0x40\n      dup2\n      keccak256\n        /* \"NftStaking.sol\":2380:2416  stakers[msg.sender].unclaimedRewards */\n      0x03\n      add\n        /* \"NftStaking.sol\":2380:2434  stakers[msg.sender].unclaimedRewards += pendingRewards */\n      dup1\n      sload\n        /* \"NftStaking.sol\":2316:2369  uint256 pendingRewards = calculateRewards(msg.sender) */\n      swap3\n      swap4\n      pop\n      dup4\n      swap3\n        /* \"NftStaking.sol\":2380:2416  stakers[msg.sender].unclaimedRewards */\n      swap1\n      swap2\n        /* \"NftStaking.sol\":2380:2399  stakers[msg.sender] */\n      swap1\n        /* \"NftStaking.sol\":2380:2434  stakers[msg.sender].unclaimedRewards += pendingRewards */\n      tag_73\n      swap1\n        /* \"NftStaking.sol\":2316:2369  uint256 pendingRewards = calculateRewards(msg.sender) */\n      dup5\n      swap1\n        /* \"NftStaking.sol\":2380:2434  stakers[msg.sender].unclaimedRewards += pendingRewards */\n      tag_56\n      jump\t// in\n    tag_73:\n      swap1\n      swap2\n      sstore\n      pop\n        /* \"NftStaking.sol\":2513:2526  uint256 index */\n      0x00\n      swap1\n      pop\n      dup1\n        /* \"NftStaking.sol\":2541:2764  for(uint256 i = 0; i < stakers[msg.sender].stakedTokens.length; i++) {... */\n    tag_74:\n        /* \"NftStaking.sol\":2572:2582  msg.sender */\n      caller\n        /* \"NftStaking.sol\":2564:2583  stakers[msg.sender] */\n      0x00\n      swap1\n      dup2\n      mstore\n        /* \"NftStaking.sol\":2564:2571  stakers */\n      0x02\n        /* \"NftStaking.sol\":2564:2583  stakers[msg.sender] */\n      0x20\n      mstore\n      0x40\n      swap1\n      keccak256\n        /* \"NftStaking.sol\":2564:2596  stakers[msg.sender].stakedTokens */\n      0x01\n      add\n        /* \"NftStaking.sol\":2564:2603  stakers[msg.sender].stakedTokens.length */\n      sload\n        /* \"NftStaking.sol\":2560:2603  i < stakers[msg.sender].stakedTokens.length */\n      dup2\n      lt\n        /* \"NftStaking.sol\":2541:2764  for(uint256 i = 0; i < stakers[msg.sender].stakedTokens.length; i++) {... */\n      iszero\n      tag_75\n      jumpi\n        /* \"NftStaking.sol\":2636:2646  msg.sender */\n      caller\n        /* \"NftStaking.sol\":2628:2647  stakers[msg.sender] */\n      0x00\n      swap1\n      dup2\n      mstore\n        /* \"NftStaking.sol\":2628:2635  stakers */\n      0x02\n        /* \"NftStaking.sol\":2628:2647  stakers[msg.sender] */\n      0x20\n      mstore\n      0x40\n      swap1\n      keccak256\n        /* \"NftStaking.sol\":2628:2660  stakers[msg.sender].stakedTokens */\n      0x01\n      add\n        /* \"NftStaking.sol\":2628:2663  stakers[msg.sender].stakedTokens[i] */\n      dup1\n      sload\n        /* \"NftStaking.sol\":2675:2683  _tokenId */\n      dup6\n      swap2\n        /* \"NftStaking.sol\":2628:2660  stakers[msg.sender].stakedTokens */\n      swap1\n        /* \"NftStaking.sol\":2661:2662  i */\n      dup4\n      swap1\n        /* \"NftStaking.sol\":2628:2663  stakers[msg.sender].stakedTokens[i] */\n      dup2\n      lt\n      tag_78\n      jumpi\n      tag_78\n      tag_79\n      jump\t// in\n    tag_78:\n      swap1\n      0x00\n      mstore\n      keccak256(0x00, 0x20)\n      swap1\n      0x02\n      mul\n      add\n        /* \"NftStaking.sol\":2628:2671  stakers[msg.sender].stakedTokens[i].tokenId */\n      0x01\n      add\n      sload\n        /* \"NftStaking.sol\":2628:2683  stakers[msg.sender].stakedTokens[i].tokenId == _tokenId */\n      sub\n        /* \"NftStaking.sol\":2625:2753  if(stakers[msg.sender].stakedTokens[i].tokenId == _tokenId) {... */\n      tag_81\n      jumpi\n        /* \"NftStaking.sol\":2712:2713  i */\n      dup1\n        /* \"NftStaking.sol\":2704:2713  index = i */\n      swap2\n      pop\n        /* \"NftStaking.sol\":2732:2737  break */\n      jump(tag_75)\n        /* \"NftStaking.sol\":2625:2753  if(stakers[msg.sender].stakedTokens[i].tokenId == _tokenId) {... */\n    tag_81:\n        /* \"NftStaking.sol\":2605:2608  i++ */\n      dup1\n      tag_82\n      dup2\n      tag_83\n      jump\t// in\n    tag_82:\n      swap2\n      pop\n      pop\n        /* \"NftStaking.sol\":2541:2764  for(uint256 i = 0; i < stakers[msg.sender].stakedTokens.length; i++) {... */\n      jump(tag_74)\n    tag_75:\n      pop\n        /* \"NftStaking.sol\":2841:2851  msg.sender */\n      caller\n        /* \"NftStaking.sol\":2890:2891  0 */\n      0x00\n        /* \"NftStaking.sol\":2833:2852  stakers[msg.sender] */\n      swap1\n      dup2\n      mstore\n        /* \"NftStaking.sol\":2833:2840  stakers */\n      0x02\n        /* \"NftStaking.sol\":2833:2852  stakers[msg.sender] */\n      0x20\n      mstore\n      0x40\n      dup2\n      keccak256\n        /* \"NftStaking.sol\":2833:2865  stakers[msg.sender].stakedTokens */\n      0x01\n      add\n        /* \"NftStaking.sol\":2833:2872  stakers[msg.sender].stakedTokens[index] */\n      dup1\n      sload\n        /* \"NftStaking.sol\":2866:2871  index */\n      dup4\n      swap1\n        /* \"NftStaking.sol\":2833:2872  stakers[msg.sender].stakedTokens[index] */\n      dup2\n      lt\n      tag_85\n      jumpi\n      tag_85\n      tag_79\n      jump\t// in\n    tag_85:\n      0x00\n      swap2\n      dup3\n      mstore\n      0x20\n      dup1\n      dup4\n      keccak256\n      0x02\n      swap3\n      dup4\n      mul\n      add\n        /* \"NftStaking.sol\":2833:2892  stakers[msg.sender].stakedTokens[index].staker = address(0) */\n      dup1\n      sload\n      not(sub(shl(0xa0, 0x01), 0x01))\n      and\n      sub(shl(0xa0, 0x01), 0x01)\n      swap6\n      swap1\n      swap6\n      and\n      swap5\n      swap1\n      swap5\n      or\n      swap1\n      swap4\n      sstore\n        /* \"NftStaking.sol\":2913:2923  msg.sender */\n      caller\n        /* \"NftStaking.sol\":2905:2924  stakers[msg.sender] */\n      dup3\n      mstore\n      swap1\n      swap2\n      mstore\n      0x40\n      dup2\n      keccak256\n        /* \"NftStaking.sol\":2905:2940  stakers[msg.sender].amountStaked -- */\n      dup1\n      sload\n      swap2\n      tag_87\n      dup4\n      tag_88\n      jump\t// in\n    tag_87:\n      swap1\n      swap2\n      sstore\n      pop\n      pop\n        /* \"NftStaking.sol\":2987:2988  0 */\n      0x00\n        /* \"NftStaking.sol\":2953:2976  stakerAddress[_tokenId] */\n      dup4\n      dup2\n      mstore\n        /* \"NftStaking.sol\":2953:2966  stakerAddress */\n      0x03\n        /* \"NftStaking.sol\":2953:2976  stakerAddress[_tokenId] */\n      0x20\n      mstore\n      0x40\n      swap1\n      dup2\n      swap1\n      keccak256\n        /* \"NftStaking.sol\":2953:2989  stakerAddress[_tokenId] = address(0) */\n      dup1\n      sload\n      not(sub(shl(0xa0, 0x01), 0x01))\n      and\n      swap1\n      sstore\n        /* \"NftStaking.sol\":3002:3069  nftCollection.safeTransferFrom(address(this), msg.sender, _tokenId) */\n      mload\n      shl(0xe1, 0x21421707)\n      dup2\n      mstore\n        /* \"NftStaking.sol\":3041:3045  this */\n      address\n        /* \"NftStaking.sol\":3002:3069  nftCollection.safeTransferFrom(address(this), msg.sender, _tokenId) */\n      0x04\n      dup3\n      add\n        /* \"#utility.yul\":4741:4775   */\n      mstore\n        /* \"NftStaking.sol\":3048:3058  msg.sender */\n      caller\n        /* \"#utility.yul\":4791:4809   */\n      0x24\n      dup3\n      add\n        /* \"#utility.yul\":4784:4827   */\n      mstore\n        /* \"#utility.yul\":4843:4861   */\n      0x44\n      dup2\n      add\n        /* \"#utility.yul\":4836:4870   */\n      dup5\n      swap1\n      mstore\n      sub(shl(0xa0, 0x01), 0x01)\n        /* \"NftStaking.sol\":3002:3015  nftCollection */\n      immutable(\"0x8e8fab5f003314da8d1873ea7720e8d9f47650136d916064d1edb8a11d682624\")\n        /* \"NftStaking.sol\":3002:3032  nftCollection.safeTransferFrom */\n      and\n      swap1\n      0x42842e0e\n      swap1\n        /* \"#utility.yul\":4653:4671   */\n      0x64\n      add\n        /* \"NftStaking.sol\":3002:3069  nftCollection.safeTransferFrom(address(this), msg.sender, _tokenId) */\n      0x00\n      mload(0x40)\n      dup1\n      dup4\n      sub\n      dup2\n      0x00\n      dup8\n      dup1\n      extcodesize\n      iszero\n      dup1\n      iszero\n      tag_91\n      jumpi\n      0x00\n      dup1\n      revert\n    tag_91:\n      pop\n      gas\n      call\n      iszero\n      dup1\n      iszero\n      tag_93\n      jumpi\n      returndatasize\n      0x00\n      dup1\n      returndatacopy\n      revert(0x00, returndatasize)\n    tag_93:\n      pop\n      pop\n        /* \"NftStaking.sol\":3090:3100  msg.sender */\n      caller\n        /* \"NftStaking.sol\":3082:3101  stakers[msg.sender] */\n      0x00\n      swap1\n      dup2\n      mstore\n        /* \"NftStaking.sol\":3082:3089  stakers */\n      0x02\n        /* \"NftStaking.sol\":3082:3101  stakers[msg.sender] */\n      0x20\n      dup2\n      swap1\n      mstore\n      0x40\n      swap1\n      swap2\n      keccak256\n        /* \"NftStaking.sol\":3121:3136  block.timestamp */\n      timestamp\n        /* \"NftStaking.sol\":3082:3118  stakers[msg.sender].timeOfLastUpdate */\n      swap2\n      add\n        /* \"NftStaking.sol\":3082:3136  stakers[msg.sender].timeOfLastUpdate = block.timestamp */\n      sstore\n      pop\n        /* \"@openzeppelin/contracts/security/ReentrancyGuard.sol\":2303:2323   */\n      tag_60\n      swap3\n      pop\n        /* \"@openzeppelin/contracts/security/ReentrancyGuard.sol\":2303:2321   */\n      tag_95\n      swap2\n      pop\n      pop\n        /* \"@openzeppelin/contracts/security/ReentrancyGuard.sol\":2303:2323   */\n      jump\t// in\n        /* \"NftStaking.sol\":4157:4847  function getStakedTokens(address _user) public view returns(StakedToken[] memory) {... */\n    tag_23:\n      sub(shl(0xa0, 0x01), 0x01)\n        /* \"NftStaking.sol\":4255:4269  stakers[_user] */\n      dup2\n      and\n        /* \"NftStaking.sol\":4285:4286  0 */\n      0x00\n        /* \"NftStaking.sol\":4255:4269  stakers[_user] */\n      swap1\n      dup2\n      mstore\n        /* \"NftStaking.sol\":4255:4262  stakers */\n      0x02\n        /* \"NftStaking.sol\":4255:4269  stakers[_user] */\n      0x20\n      mstore\n      0x40\n      swap1\n      keccak256\n        /* \"NftStaking.sol\":4255:4282  stakers[_user].amountStaked */\n      sload\n        /* \"NftStaking.sol\":4217:4237  StakedToken[] memory */\n      0x60\n      swap1\n        /* \"NftStaking.sol\":4255:4286  stakers[_user].amountStaked > 0 */\n      iszero\n        /* \"NftStaking.sol\":4252:4840  if(stakers[_user].amountStaked > 0) {... */\n      tag_97\n      jumpi\n      sub(shl(0xa0, 0x01), 0x01)\n        /* \"NftStaking.sol\":4358:4372  stakers[_user] */\n      dup3\n      and\n        /* \"NftStaking.sol\":4303:4337  StakedToken[] memory _stakedTokens */\n      0x00\n        /* \"NftStaking.sol\":4358:4372  stakers[_user] */\n      swap1\n      dup2\n      mstore\n        /* \"NftStaking.sol\":4358:4365  stakers */\n      0x02\n        /* \"NftStaking.sol\":4358:4372  stakers[_user] */\n      0x20\n      mstore\n      0x40\n      dup2\n      keccak256\n        /* \"NftStaking.sol\":4358:4385  stakers[_user].amountStaked */\n      sload\n        /* \"NftStaking.sol\":4340:4386  new StakedToken[](stakers[_user].amountStaked) */\n      0xffffffffffffffff\n      dup2\n      gt\n      iszero\n      tag_99\n      jumpi\n      tag_99\n      tag_100\n      jump\t// in\n    tag_99:\n      mload(0x40)\n      swap1\n      dup1\n      dup3\n      mstore\n      dup1\n      0x20\n      mul\n      0x20\n      add\n      dup3\n      add\n      0x40\n      mstore\n      dup1\n      iszero\n      tag_101\n      jumpi\n      dup2\n      0x20\n      add\n    tag_102:\n      0x40\n      dup1\n      mload\n      dup1\n      dup3\n      add\n      swap1\n      swap2\n      mstore\n      0x00\n      dup1\n      dup3\n      mstore\n      0x20\n      dup3\n      add\n      mstore\n      dup2\n      mstore\n      0x20\n      add\n      swap1\n      0x01\n      swap1\n      sub\n      swap1\n      dup2\n      tag_102\n      jumpi\n      swap1\n      pop\n    tag_101:\n      pop\n        /* \"NftStaking.sol\":4303:4386  StakedToken[] memory _stakedTokens = new StakedToken[](stakers[_user].amountStaked) */\n      swap1\n      pop\n        /* \"NftStaking.sol\":4401:4414  uint256 index */\n      0x00\n        /* \"NftStaking.sol\":4439:4448  uint256 i */\n      dup1\n        /* \"NftStaking.sol\":4435:4717  for(uint256 i = 0; i < stakers[_user].stakedTokens.length; i++) {... */\n    tag_105:\n      sub(shl(0xa0, 0x01), 0x01)\n        /* \"NftStaking.sol\":4458:4472  stakers[_user] */\n      dup6\n      and\n      0x00\n      swap1\n      dup2\n      mstore\n        /* \"NftStaking.sol\":4458:4465  stakers */\n      0x02\n        /* \"NftStaking.sol\":4458:4472  stakers[_user] */\n      0x20\n      mstore\n      0x40\n      swap1\n      keccak256\n        /* \"NftStaking.sol\":4458:4485  stakers[_user].stakedTokens */\n      0x01\n      add\n        /* \"NftStaking.sol\":4458:4492  stakers[_user].stakedTokens.length */\n      sload\n        /* \"NftStaking.sol\":4454:4492  i < stakers[_user].stakedTokens.length */\n      dup2\n      lt\n        /* \"NftStaking.sol\":4435:4717  for(uint256 i = 0; i < stakers[_user].stakedTokens.length; i++) {... */\n      iszero\n      tag_106\n      jumpi\n      sub(shl(0xa0, 0x01), 0x01)\n        /* \"NftStaking.sol\":4521:4535  stakers[_user] */\n      dup6\n      and\n        /* \"NftStaking.sol\":4571:4572  0 */\n      0x00\n        /* \"NftStaking.sol\":4521:4535  stakers[_user] */\n      swap1\n      dup2\n      mstore\n        /* \"NftStaking.sol\":4521:4528  stakers */\n      0x02\n        /* \"NftStaking.sol\":4521:4535  stakers[_user] */\n      0x20\n      mstore\n      0x40\n      dup2\n      keccak256\n        /* \"NftStaking.sol\":4521:4548  stakers[_user].stakedTokens */\n      0x01\n      add\n        /* \"NftStaking.sol\":4521:4551  stakers[_user].stakedTokens[i] */\n      dup1\n      sload\n        /* \"NftStaking.sol\":4549:4550  i */\n      dup4\n      swap1\n        /* \"NftStaking.sol\":4521:4551  stakers[_user].stakedTokens[i] */\n      dup2\n      lt\n      tag_109\n      jumpi\n      tag_109\n      tag_79\n      jump\t// in\n    tag_109:\n      0x00\n      swap2\n      dup3\n      mstore\n      0x20\n      swap1\n      swap2\n      keccak256\n      0x02\n      swap1\n      swap2\n      mul\n      add\n        /* \"NftStaking.sol\":4521:4558  stakers[_user].stakedTokens[i].staker */\n      sload\n      sub(shl(0xa0, 0x01), 0x01)\n      and\n        /* \"NftStaking.sol\":4521:4574  stakers[_user].stakedTokens[i].staker != (address(0)) */\n      eq\n        /* \"NftStaking.sol\":4518:4702  if(stakers[_user].stakedTokens[i].staker != (address(0))) {... */\n      tag_111\n      jumpi\n      sub(shl(0xa0, 0x01), 0x01)\n        /* \"NftStaking.sol\":4622:4636  stakers[_user] */\n      dup6\n      and\n      0x00\n      swap1\n      dup2\n      mstore\n        /* \"NftStaking.sol\":4622:4629  stakers */\n      0x02\n        /* \"NftStaking.sol\":4622:4636  stakers[_user] */\n      0x20\n      mstore\n      0x40\n      swap1\n      keccak256\n        /* \"NftStaking.sol\":4622:4649  stakers[_user].stakedTokens */\n      0x01\n      add\n        /* \"NftStaking.sol\":4622:4652  stakers[_user].stakedTokens[i] */\n      dup1\n      sload\n        /* \"NftStaking.sol\":4650:4651  i */\n      dup3\n      swap1\n        /* \"NftStaking.sol\":4622:4652  stakers[_user].stakedTokens[i] */\n      dup2\n      lt\n      tag_113\n      jumpi\n      tag_113\n      tag_79\n      jump\t// in\n    tag_113:\n      0x00\n      swap2\n      dup3\n      mstore\n      0x20\n      swap2\n      dup3\n      swap1\n      keccak256\n        /* \"NftStaking.sol\":4599:4652  _stakedTokens[index] = stakers[_user].stakedTokens[i] */\n      0x40\n      dup1\n      mload\n      dup1\n      dup3\n      add\n      swap1\n      swap2\n      mstore\n        /* \"NftStaking.sol\":4622:4652  stakers[_user].stakedTokens[i] */\n      0x02\n      swap1\n      swap3\n      mul\n      add\n        /* \"NftStaking.sol\":4599:4652  _stakedTokens[index] = stakers[_user].stakedTokens[i] */\n      dup1\n      sload\n      sub(shl(0xa0, 0x01), 0x01)\n      and\n      dup3\n      mstore\n      0x01\n      add\n      sload\n      swap2\n      dup2\n      add\n      swap2\n      swap1\n      swap2\n      mstore\n        /* \"NftStaking.sol\":4599:4619  _stakedTokens[index] */\n      dup4\n      mload\n        /* \"NftStaking.sol\":4599:4612  _stakedTokens */\n      dup5\n      swap1\n        /* \"NftStaking.sol\":4613:4618  index */\n      dup5\n      swap1\n        /* \"NftStaking.sol\":4599:4619  _stakedTokens[index] */\n      dup2\n      lt\n      tag_116\n      jumpi\n      tag_116\n      tag_79\n      jump\t// in\n    tag_116:\n      0x20\n      mul\n      0x20\n      add\n      add\n        /* \"NftStaking.sol\":4599:4652  _stakedTokens[index] = stakers[_user].stakedTokens[i] */\n      dup2\n      swap1\n      mstore\n      pop\n        /* \"NftStaking.sol\":4675:4682  index++ */\n      dup2\n      dup1\n      tag_117\n      swap1\n      tag_83\n      jump\t// in\n    tag_117:\n      swap3\n      pop\n      pop\n        /* \"NftStaking.sol\":4518:4702  if(stakers[_user].stakedTokens[i].staker != (address(0))) {... */\n    tag_111:\n        /* \"NftStaking.sol\":4494:4497  i++ */\n      dup1\n      tag_118\n      dup2\n      tag_83\n      jump\t// in\n    tag_118:\n      swap2\n      pop\n      pop\n        /* \"NftStaking.sol\":4435:4717  for(uint256 i = 0; i < stakers[_user].stakedTokens.length; i++) {... */\n      jump(tag_105)\n    tag_106:\n      pop\n        /* \"NftStaking.sol\":4738:4751  _stakedTokens */\n      swap1\n      swap4\n        /* \"NftStaking.sol\":4157:4847  function getStakedTokens(address _user) public view returns(StakedToken[] memory) {... */\n      swap3\n      pop\n      pop\n      pop\n      jump\t// out\n        /* \"NftStaking.sol\":4252:4840  if(stakers[_user].amountStaked > 0) {... */\n    tag_97:\n        /* \"NftStaking.sol\":4804:4824  new StakedToken[](0) */\n      0x40\n      dup1\n      mload\n        /* \"NftStaking.sol\":4822:4823  0 */\n      0x00\n        /* \"NftStaking.sol\":4804:4824  new StakedToken[](0) */\n      dup1\n      dup3\n      mstore\n      0x20\n      dup3\n      add\n      swap1\n      swap3\n      mstore\n      swap1\n      jump(tag_122)\n    tag_123:\n      0x40\n      dup1\n      mload\n      dup1\n      dup3\n      add\n      swap1\n      swap2\n      mstore\n      0x00\n      dup1\n      dup3\n      mstore\n      0x20\n      dup3\n      add\n      mstore\n      dup2\n      mstore\n      0x20\n      add\n      swap1\n      0x01\n      swap1\n      sub\n      swap1\n      dup2\n      tag_123\n      jumpi\n      swap1\n      pop\n    tag_122:\n      pop\n        /* \"NftStaking.sol\":4797:4824  return new StakedToken[](0) */\n      swap3\n        /* \"NftStaking.sol\":4157:4847  function getStakedTokens(address _user) public view returns(StakedToken[] memory) {... */\n      swap2\n      pop\n      pop\n      jump\t// out\n        /* \"NftStaking.sol\":1263:2012  function stakeToken(uint256 _tokenId) external nonReentrant {... */\n    tag_42:\n        /* \"@openzeppelin/contracts/security/ReentrancyGuard.sol\":2261:2282   */\n      tag_126\n        /* \"@openzeppelin/contracts/security/ReentrancyGuard.sol\":2261:2280   */\n      tag_64\n        /* \"@openzeppelin/contracts/security/ReentrancyGuard.sol\":2261:2282   */\n      jump\t// in\n    tag_126:\n        /* \"NftStaking.sol\":1347:1357  msg.sender */\n      caller\n        /* \"NftStaking.sol\":1374:1375  0 */\n      0x00\n        /* \"NftStaking.sol\":1339:1358  stakers[msg.sender] */\n      swap1\n      dup2\n      mstore\n        /* \"NftStaking.sol\":1339:1346  stakers */\n      0x02\n        /* \"NftStaking.sol\":1339:1358  stakers[msg.sender] */\n      0x20\n      mstore\n      0x40\n      swap1\n      keccak256\n        /* \"NftStaking.sol\":1339:1371  stakers[msg.sender].amountStaked */\n      sload\n        /* \"NftStaking.sol\":1339:1375  stakers[msg.sender].amountStaked > 0 */\n      iszero\n        /* \"NftStaking.sol\":1336:1526  if(stakers[msg.sender].amountStaked > 0) {... */\n      tag_128\n      jumpi\n        /* \"NftStaking.sol\":1392:1414  uint256 pendingRewards */\n      0x00\n        /* \"NftStaking.sol\":1417:1445  calculateRewards(msg.sender) */\n      tag_129\n        /* \"NftStaking.sol\":1434:1444  msg.sender */\n      caller\n        /* \"NftStaking.sol\":1417:1433  calculateRewards */\n      tag_54\n        /* \"NftStaking.sol\":1417:1445  calculateRewards(msg.sender) */\n      jump\t// in\n    tag_129:\n        /* \"NftStaking.sol\":1468:1478  msg.sender */\n      caller\n        /* \"NftStaking.sol\":1460:1479  stakers[msg.sender] */\n      0x00\n      swap1\n      dup2\n      mstore\n        /* \"NftStaking.sol\":1460:1467  stakers */\n      0x02\n        /* \"NftStaking.sol\":1460:1479  stakers[msg.sender] */\n      0x20\n      mstore\n      0x40\n      dup2\n      keccak256\n        /* \"NftStaking.sol\":1460:1496  stakers[msg.sender].unclaimedRewards */\n      0x03\n      add\n        /* \"NftStaking.sol\":1460:1514  stakers[msg.sender].unclaimedRewards += pendingRewards */\n      dup1\n      sload\n        /* \"NftStaking.sol\":1392:1445  uint256 pendingRewards = calculateRewards(msg.sender) */\n      swap3\n      swap4\n      pop\n      dup4\n      swap3\n        /* \"NftStaking.sol\":1460:1496  stakers[msg.sender].unclaimedRewards */\n      swap1\n      swap2\n        /* \"NftStaking.sol\":1460:1479  stakers[msg.sender] */\n      swap1\n        /* \"NftStaking.sol\":1460:1514  stakers[msg.sender].unclaimedRewards += pendingRewards */\n      tag_130\n      swap1\n        /* \"NftStaking.sol\":1392:1445  uint256 pendingRewards = calculateRewards(msg.sender) */\n      dup5\n      swap1\n        /* \"NftStaking.sol\":1460:1514  stakers[msg.sender].unclaimedRewards += pendingRewards */\n      tag_56\n      jump\t// in\n    tag_130:\n      swap1\n      swap2\n      sstore\n      pop\n      pop\n      pop\n        /* \"NftStaking.sol\":1336:1526  if(stakers[msg.sender].amountStaked > 0) {... */\n    tag_128:\n        /* \"NftStaking.sol\":1546:1577  nftCollection.ownerOf(_tokenId) */\n      mload(0x40)\n      shl(0xe1, 0x31a9108f)\n      dup2\n      mstore\n      0x04\n      dup2\n      add\n        /* \"#utility.yul\":2649:2674   */\n      dup3\n      swap1\n      mstore\n        /* \"NftStaking.sol\":1581:1591  msg.sender */\n      caller\n      swap1\n      sub(shl(0xa0, 0x01), 0x01)\n        /* \"NftStaking.sol\":1546:1559  nftCollection */\n      immutable(\"0x8e8fab5f003314da8d1873ea7720e8d9f47650136d916064d1edb8a11d682624\")\n        /* \"NftStaking.sol\":1546:1567  nftCollection.ownerOf */\n      and\n      swap1\n      0x6352211e\n      swap1\n        /* \"#utility.yul\":2622:2640   */\n      0x24\n      add\n        /* \"NftStaking.sol\":1546:1577  nftCollection.ownerOf(_tokenId) */\n      0x20\n      mload(0x40)\n      dup1\n      dup4\n      sub\n      dup2\n      dup7\n      gas\n      staticcall\n      iszero\n      dup1\n      iszero\n      tag_133\n      jumpi\n      returndatasize\n      0x00\n      dup1\n      returndatacopy\n      revert(0x00, returndatasize)\n    tag_133:\n      pop\n      pop\n      pop\n      pop\n      mload(0x40)\n      returndatasize\n      not(0x1f)\n      0x1f\n      dup3\n      add\n      and\n      dup3\n      add\n      dup1\n      0x40\n      mstore\n      pop\n      dup2\n      add\n      swap1\n      tag_134\n      swap2\n      swap1\n      tag_135\n      jump\t// in\n    tag_134:\n      sub(shl(0xa0, 0x01), 0x01)\n        /* \"NftStaking.sol\":1546:1591  nftCollection.ownerOf(_tokenId) == msg.sender */\n      and\n      eq\n        /* \"NftStaking.sol\":1538:1621  require(nftCollection.ownerOf(_tokenId) == msg.sender, \"You dont't own this token\") */\n      tag_136\n      jumpi\n      mload(0x40)\n      shl(0xe5, 0x461bcd)\n      dup2\n      mstore\n        /* \"#utility.yul\":5471:5473   */\n      0x20\n        /* \"NftStaking.sol\":1538:1621  require(nftCollection.ownerOf(_tokenId) == msg.sender, \"You dont't own this token\") */\n      0x04\n      dup3\n      add\n        /* \"#utility.yul\":5453:5474   */\n      mstore\n        /* \"#utility.yul\":5510:5512   */\n      0x19\n        /* \"#utility.yul\":5490:5508   */\n      0x24\n      dup3\n      add\n        /* \"#utility.yul\":5483:5513   */\n      mstore\n        /* \"#utility.yul\":5549:5576   */\n      0x596f7520646f6e742774206f776e207468697320746f6b656e00000000000000\n        /* \"#utility.yul\":5529:5547   */\n      0x44\n      dup3\n      add\n        /* \"#utility.yul\":5522:5577   */\n      mstore\n        /* \"#utility.yul\":5594:5612   */\n      0x64\n      add\n        /* \"NftStaking.sol\":1538:1621  require(nftCollection.ownerOf(_tokenId) == msg.sender, \"You dont't own this token\") */\n      tag_58\n        /* \"#utility.yul\":5269:5618   */\n      jump\n        /* \"NftStaking.sol\":1538:1621  require(nftCollection.ownerOf(_tokenId) == msg.sender, \"You dont't own this token\") */\n    tag_136:\n        /* \"NftStaking.sol\":1634:1697  nftCollection.transferFrom(msg.sender, address(this), _tokenId) */\n      mload(0x40)\n      shl(0xe0, 0x23b872dd)\n      dup2\n      mstore\n        /* \"NftStaking.sol\":1661:1671  msg.sender */\n      caller\n        /* \"NftStaking.sol\":1634:1697  nftCollection.transferFrom(msg.sender, address(this), _tokenId) */\n      0x04\n      dup3\n      add\n        /* \"#utility.yul\":4741:4775   */\n      mstore\n        /* \"NftStaking.sol\":1681:1685  this */\n      address\n        /* \"#utility.yul\":4791:4809   */\n      0x24\n      dup3\n      add\n        /* \"#utility.yul\":4784:4827   */\n      mstore\n        /* \"#utility.yul\":4843:4861   */\n      0x44\n      dup2\n      add\n        /* \"#utility.yul\":4836:4870   */\n      dup3\n      swap1\n      mstore\n        /* \"NftStaking.sol\":1634:1647  nftCollection */\n      immutable(\"0x8e8fab5f003314da8d1873ea7720e8d9f47650136d916064d1edb8a11d682624\")\n      sub(shl(0xa0, 0x01), 0x01)\n        /* \"NftStaking.sol\":1634:1660  nftCollection.transferFrom */\n      and\n      swap1\n      0x23b872dd\n      swap1\n        /* \"#utility.yul\":4653:4671   */\n      0x64\n      add\n        /* \"NftStaking.sol\":1634:1697  nftCollection.transferFrom(msg.sender, address(this), _tokenId) */\n      0x00\n      mload(0x40)\n      dup1\n      dup4\n      sub\n      dup2\n      0x00\n      dup8\n      dup1\n      extcodesize\n      iszero\n      dup1\n      iszero\n      tag_140\n      jumpi\n      0x00\n      dup1\n      revert\n    tag_140:\n      pop\n      gas\n      call\n      iszero\n      dup1\n      iszero\n      tag_142\n      jumpi\n      returndatasize\n      0x00\n      dup1\n      returndatacopy\n      revert(0x00, returndatasize)\n    tag_142:\n      pop\n      pop\n        /* \"NftStaking.sol\":1744:1777  StakedToken(msg.sender, _tokenId) */\n      0x40\n      dup1\n      mload\n      dup1\n      dup3\n      add\n      dup3\n      mstore\n        /* \"NftStaking.sol\":1756:1766  msg.sender */\n      caller\n        /* \"NftStaking.sol\":1744:1777  StakedToken(msg.sender, _tokenId) */\n      dup1\n      dup3\n      mstore\n      0x20\n      dup1\n      dup4\n      add\n      dup8\n      dup2\n      mstore\n      0x00\n        /* \"NftStaking.sol\":1790:1809  stakers[msg.sender] */\n      dup4\n      dup2\n      mstore\n        /* \"NftStaking.sol\":1790:1797  stakers */\n      0x02\n        /* \"NftStaking.sol\":1790:1809  stakers[msg.sender] */\n      dup1\n      dup5\n      mstore\n      swap6\n      dup2\n      keccak256\n        /* \"NftStaking.sol\":1790:1822  stakers[msg.sender].stakedTokens */\n      0x01\n      dup1\n      dup3\n      add\n        /* \"NftStaking.sol\":1790:1840  stakers[msg.sender].stakedTokens.push(stakedToken) */\n      dup1\n      sload\n      dup1\n      dup4\n      add\n      dup3\n      sstore\n      swap1\n      dup5\n      mstore\n      swap5\n      dup4\n      keccak256\n      dup8\n      mload\n      swap6\n      swap1\n      swap9\n      mul\n      swap1\n      swap8\n      add\n      dup1\n      sload\n      not(sub(shl(0xa0, 0x01), 0x01))\n      and\n      sub(shl(0xa0, 0x01), 0x01)\n      swap1\n      swap6\n      and\n      swap5\n      swap1\n      swap5\n      or\n      dup5\n      sstore\n      swap2\n      mload\n      swap3\n      swap1\n      swap6\n      add\n      swap2\n      swap1\n      swap2\n      sstore\n        /* \"NftStaking.sol\":1853:1872  stakers[msg.sender] */\n      swap1\n      dup4\n      mstore\n        /* \"NftStaking.sol\":1853:1888  stakers[msg.sender].amountStaked ++ */\n      dup1\n      sload\n        /* \"NftStaking.sol\":1744:1777  StakedToken(msg.sender, _tokenId) */\n      swap2\n      swap5\n      pop\n        /* \"NftStaking.sol\":1853:1888  stakers[msg.sender].amountStaked ++ */\n      swap1\n      swap3\n      pop\n        /* \"NftStaking.sol\":1790:1809  stakers[msg.sender] */\n      swap1\n        /* \"NftStaking.sol\":1853:1888  stakers[msg.sender].amountStaked ++ */\n      tag_144\n      dup4\n      tag_83\n      jump\t// in\n    tag_144:\n      swap1\n      swap2\n      sstore\n      pop\n      pop\n      pop\n        /* \"NftStaking.sol\":1901:1924  stakerAddress[_tokenId] */\n      0x00\n      dup2\n      dup2\n      mstore\n        /* \"NftStaking.sol\":1901:1914  stakerAddress */\n      0x03\n        /* \"NftStaking.sol\":1901:1924  stakerAddress[_tokenId] */\n      0x20\n      swap1\n      dup2\n      mstore\n      0x40\n      dup1\n      dup4\n      keccak256\n        /* \"NftStaking.sol\":1901:1937  stakerAddress[_tokenId] = msg.sender */\n      dup1\n      sload\n      not(sub(shl(0xa0, 0x01), 0x01))\n      and\n        /* \"NftStaking.sol\":1927:1937  msg.sender */\n      caller\n        /* \"NftStaking.sol\":1901:1937  stakerAddress[_tokenId] = msg.sender */\n      swap1\n      dup2\n      or\n      swap1\n      swap2\n      sstore\n        /* \"NftStaking.sol\":1950:1969  stakers[msg.sender] */\n      dup4\n      mstore\n        /* \"NftStaking.sol\":1950:1957  stakers */\n      0x02\n        /* \"NftStaking.sol\":1950:1969  stakers[msg.sender] */\n      swap2\n      dup3\n      swap1\n      mstore\n      swap1\n      swap2\n      keccak256\n        /* \"NftStaking.sol\":1989:2004  block.timestamp */\n      timestamp\n        /* \"NftStaking.sol\":1950:1986  stakers[msg.sender].timeOfLastUpdate */\n      swap2\n      add\n        /* \"NftStaking.sol\":1950:2004  stakers[msg.sender].timeOfLastUpdate = block.timestamp */\n      sstore\n        /* \"@openzeppelin/contracts/security/ReentrancyGuard.sol\":2303:2323   */\n      tag_60\n        /* \"@openzeppelin/contracts/security/ReentrancyGuard.sol\":1716:1717   */\n      0x01\n        /* \"@openzeppelin/contracts/security/ReentrancyGuard.sol\":2809:2816   */\n      0x00\n        /* \"@openzeppelin/contracts/security/ReentrancyGuard.sol\":2809:2831   */\n      sstore\n        /* \"@openzeppelin/contracts/security/ReentrancyGuard.sol\":2629:2838   */\n      jump\n        /* \"NftStaking.sol\":3914:4109  function availableRewards(address _staker) public view returns(uint256) {... */\n    tag_49:\n      sub(shl(0xa0, 0x01), 0x01)\n        /* \"NftStaking.sol\":4043:4059  stakers[_staker] */\n      dup2\n      and\n        /* \"NftStaking.sol\":3977:3984  uint256 */\n      0x00\n        /* \"NftStaking.sol\":4043:4059  stakers[_staker] */\n      swap1\n      dup2\n      mstore\n        /* \"NftStaking.sol\":4043:4050  stakers */\n      0x02\n        /* \"NftStaking.sol\":4043:4059  stakers[_staker] */\n      0x20\n      mstore\n      0x40\n      dup2\n      keccak256\n        /* \"NftStaking.sol\":4043:4076  stakers[_staker].unclaimedRewards */\n      0x03\n      add\n      sload\n        /* \"NftStaking.sol\":3977:3984  uint256 */\n      dup2\n      swap1\n        /* \"NftStaking.sol\":4015:4040  calculateRewards(_staker) */\n      tag_147\n        /* \"NftStaking.sol\":4051:4058  _staker */\n      dup5\n        /* \"NftStaking.sol\":4015:4031  calculateRewards */\n      tag_54\n        /* \"NftStaking.sol\":4015:4040  calculateRewards(_staker) */\n      jump\t// in\n    tag_147:\n        /* \"NftStaking.sol\":4015:4076  calculateRewards(_staker) + stakers[_staker].unclaimedRewards */\n      tag_148\n      swap2\n      swap1\n      tag_56\n      jump\t// in\n    tag_148:\n        /* \"NftStaking.sol\":3997:4076  uint256 rewards = calculateRewards(_staker) + stakers[_staker].unclaimedRewards */\n      swap4\n        /* \"NftStaking.sol\":3914:4109  function availableRewards(address _staker) public view returns(uint256) {... */\n      swap3\n      pop\n      pop\n      pop\n      jump\t// out\n        /* \"NftStaking.sol\":3621:3871  function calculateRewards(address _staker) internal view returns(uint256 _rewards) {... */\n    tag_54:\n        /* \"NftStaking.sol\":3840:3854  rewardsPerHour */\n      sload(0x01)\n      sub(shl(0xa0, 0x01), 0x01)\n        /* \"NftStaking.sol\":3796:3812  stakers[_staker] */\n      dup3\n      and\n        /* \"NftStaking.sol\":3686:3702  uint256 _rewards */\n      0x00\n        /* \"NftStaking.sol\":3796:3812  stakers[_staker] */\n      swap1\n      dup2\n      mstore\n        /* \"NftStaking.sol\":3796:3803  stakers */\n      0x02\n        /* \"NftStaking.sol\":3796:3812  stakers[_staker] */\n      0x20\n      dup2\n      swap1\n      mstore\n      0x40\n      dup3\n      keccak256\n        /* \"NftStaking.sol\":3796:3825  stakers[_staker].amountStaked */\n      dup1\n      sload\n        /* \"NftStaking.sol\":3759:3792  stakers[_staker].timeOfLastUpdate */\n      swap2\n      add\n      sload\n        /* \"NftStaking.sol\":3686:3702  uint256 _rewards */\n      swap2\n      swap3\n        /* \"NftStaking.sol\":3858:3862  3600 */\n      0x0e10\n      swap3\n        /* \"NftStaking.sol\":3840:3854  rewardsPerHour */\n      swap1\n      swap2\n        /* \"NftStaking.sol\":3796:3825  stakers[_staker].amountStaked */\n      swap1\n        /* \"NftStaking.sol\":3741:3792  block.timestamp - stakers[_staker].timeOfLastUpdate */\n      tag_150\n      swap1\n        /* \"NftStaking.sol\":3741:3756  block.timestamp */\n      timestamp\n        /* \"NftStaking.sol\":3741:3792  block.timestamp - stakers[_staker].timeOfLastUpdate */\n      tag_151\n      jump\t// in\n    tag_150:\n        /* \"NftStaking.sol\":3740:3825  (block.timestamp - stakers[_staker].timeOfLastUpdate) * stakers[_staker].amountStaked */\n      tag_152\n      swap2\n      swap1\n      tag_153\n      jump\t// in\n    tag_152:\n        /* \"NftStaking.sol\":3724:3854  (... */\n      tag_154\n      swap2\n      swap1\n      tag_153\n      jump\t// in\n    tag_154:\n        /* \"NftStaking.sol\":3723:3862  ((... */\n      tag_155\n      swap2\n      swap1\n      tag_156\n      jump\t// in\n    tag_155:\n        /* \"NftStaking.sol\":3715:3863  return (((... */\n      swap3\n        /* \"NftStaking.sol\":3621:3871  function calculateRewards(address _staker) internal view returns(uint256 _rewards) {... */\n      swap2\n      pop\n      pop\n      jump\t// out\n        /* \"@openzeppelin/contracts/token/ERC20/utils/SafeERC20.sol\":941:1116   */\n    tag_61:\n        /* \"@openzeppelin/contracts/token/ERC20/utils/SafeERC20.sol\":1050:1108   */\n      0x40\n      dup1\n      mload\n      sub(shl(0xa0, 0x01), 0x01)\n        /* \"#utility.yul\":6343:6398   */\n      dup5\n      and\n        /* \"@openzeppelin/contracts/token/ERC20/utils/SafeERC20.sol\":1050:1108   */\n      0x24\n      dup3\n      add\n        /* \"#utility.yul\":6325:6399   */\n      mstore\n        /* \"#utility.yul\":6415:6433   */\n      0x44\n      dup1\n      dup3\n      add\n        /* \"#utility.yul\":6408:6442   */\n      dup5\n      swap1\n      mstore\n        /* \"@openzeppelin/contracts/token/ERC20/utils/SafeERC20.sol\":1050:1108   */\n      dup3\n      mload\n      dup1\n      dup4\n      sub\n      swap1\n      swap2\n      add\n      dup2\n      mstore\n        /* \"#utility.yul\":6298:6316   */\n      0x64\n      swap1\n      swap2\n      add\n        /* \"@openzeppelin/contracts/token/ERC20/utils/SafeERC20.sol\":1050:1108   */\n      swap1\n      swap2\n      mstore\n      0x20\n      dup2\n      add\n      dup1\n      mload\n      0xffffffffffffffffffffffffffffffffffffffffffffffffffffffff\n      and\n      shl(0xe0, 0xa9059cbb)\n      or\n      swap1\n      mstore\n        /* \"@openzeppelin/contracts/token/ERC20/utils/SafeERC20.sol\":1023:1109   */\n      tag_158\n      swap1\n        /* \"@openzeppelin/contracts/token/ERC20/utils/SafeERC20.sol\":1043:1048   */\n      dup5\n      swap1\n        /* \"@openzeppelin/contracts/token/ERC20/utils/SafeERC20.sol\":1023:1042   */\n      tag_161\n        /* \"@openzeppelin/contracts/token/ERC20/utils/SafeERC20.sol\":1023:1109   */\n      jump\t// in\n    tag_158:\n        /* \"@openzeppelin/contracts/token/ERC20/utils/SafeERC20.sol\":941:1116   */\n      pop\n      pop\n      pop\n      jump\t// out\n        /* \"@openzeppelin/contracts/security/ReentrancyGuard.sol\":2336:2623   */\n    tag_64:\n        /* \"@openzeppelin/contracts/security/ReentrancyGuard.sol\":1759:1760   */\n      0x02\n        /* \"@openzeppelin/contracts/security/ReentrancyGuard.sol\":2468:2475   */\n      sload(0x00)\n        /* \"@openzeppelin/contracts/security/ReentrancyGuard.sol\":2468:2487   */\n      sub\n        /* \"@openzeppelin/contracts/security/ReentrancyGuard.sol\":2460:2523   */\n      tag_163\n      jumpi\n      mload(0x40)\n      shl(0xe5, 0x461bcd)\n      dup2\n      mstore\n        /* \"#utility.yul\":6655:6657   */\n      0x20\n        /* \"@openzeppelin/contracts/security/ReentrancyGuard.sol\":2460:2523   */\n      0x04\n      dup3\n      add\n        /* \"#utility.yul\":6637:6658   */\n      mstore\n        /* \"#utility.yul\":6694:6696   */\n      0x1f\n        /* \"#utility.yul\":6674:6692   */\n      0x24\n      dup3\n      add\n        /* \"#utility.yul\":6667:6697   */\n      mstore\n        /* \"#utility.yul\":6733:6766   */\n      0x5265656e7472616e637947756172643a207265656e7472616e742063616c6c00\n        /* \"#utility.yul\":6713:6731   */\n      0x44\n      dup3\n      add\n        /* \"#utility.yul\":6706:6767   */\n      mstore\n        /* \"#utility.yul\":6784:6802   */\n      0x64\n      add\n        /* \"@openzeppelin/contracts/security/ReentrancyGuard.sol\":2460:2523   */\n      tag_58\n        /* \"#utility.yul\":6453:6808   */\n      jump\n        /* \"@openzeppelin/contracts/security/ReentrancyGuard.sol\":2460:2523   */\n    tag_163:\n        /* \"@openzeppelin/contracts/security/ReentrancyGuard.sol\":1759:1760   */\n      0x02\n        /* \"@openzeppelin/contracts/security/ReentrancyGuard.sol\":2598:2605   */\n      0x00\n        /* \"@openzeppelin/contracts/security/ReentrancyGuard.sol\":2598:2616   */\n      sstore\n        /* \"@openzeppelin/contracts/security/ReentrancyGuard.sol\":2336:2623   */\n      jump\t// out\n        /* \"@openzeppelin/contracts/security/ReentrancyGuard.sol\":2629:2838   */\n    tag_95:\n        /* \"@openzeppelin/contracts/security/ReentrancyGuard.sol\":1716:1717   */\n      0x01\n        /* \"@openzeppelin/contracts/security/ReentrancyGuard.sol\":2809:2816   */\n      0x00\n        /* \"@openzeppelin/contracts/security/ReentrancyGuard.sol\":2809:2831   */\n      sstore\n        /* \"@openzeppelin/contracts/security/ReentrancyGuard.sol\":2629:2838   */\n      jump\t// out\n        /* \"@openzeppelin/contracts/token/ERC20/utils/SafeERC20.sol\":5196:5838   */\n    tag_161:\n        /* \"@openzeppelin/contracts/token/ERC20/utils/SafeERC20.sol\":5615:5638   */\n      0x00\n        /* \"@openzeppelin/contracts/token/ERC20/utils/SafeERC20.sol\":5641:5710   */\n      tag_168\n        /* \"@openzeppelin/contracts/token/ERC20/utils/SafeERC20.sol\":5669:5673   */\n      dup3\n        /* \"@openzeppelin/contracts/token/ERC20/utils/SafeERC20.sol\":5641:5710   */\n      mload(0x40)\n      dup1\n      0x40\n      add\n      0x40\n      mstore\n      dup1\n      0x20\n      dup2\n      mstore\n      0x20\n      add\n      0x5361666545524332303a206c6f772d6c6576656c2063616c6c206661696c6564\n      dup2\n      mstore\n      pop\n        /* \"@openzeppelin/contracts/token/ERC20/utils/SafeERC20.sol\":5649:5654   */\n      dup6\n      sub(shl(0xa0, 0x01), 0x01)\n        /* \"@openzeppelin/contracts/token/ERC20/utils/SafeERC20.sol\":5641:5668   */\n      and\n      tag_169\n      swap1\n        /* \"@openzeppelin/contracts/token/ERC20/utils/SafeERC20.sol\":5641:5710   */\n      swap3\n      swap2\n      swap1\n      0xffffffff\n      and\n      jump\t// in\n    tag_168:\n        /* \"@openzeppelin/contracts/token/ERC20/utils/SafeERC20.sol\":5615:5710   */\n      swap1\n      pop\n        /* \"@openzeppelin/contracts/token/ERC20/utils/SafeERC20.sol\":5728:5738   */\n      dup1\n        /* \"@openzeppelin/contracts/token/ERC20/utils/SafeERC20.sol\":5728:5745   */\n      mload\n        /* \"@openzeppelin/contracts/token/ERC20/utils/SafeERC20.sol\":5749:5750   */\n      0x00\n        /* \"@openzeppelin/contracts/token/ERC20/utils/SafeERC20.sol\":5728:5750   */\n      eq\n        /* \"@openzeppelin/contracts/token/ERC20/utils/SafeERC20.sol\":5728:5784   */\n      dup1\n      tag_171\n      jumpi\n      pop\n        /* \"@openzeppelin/contracts/token/ERC20/utils/SafeERC20.sol\":5765:5775   */\n      dup1\n        /* \"@openzeppelin/contracts/token/ERC20/utils/SafeERC20.sol\":5754:5784   */\n      dup1\n      0x20\n      add\n      swap1\n      mload\n      dup2\n      add\n      swap1\n      tag_171\n      swap2\n      swap1\n      tag_172\n      jump\t// in\n    tag_171:\n        /* \"@openzeppelin/contracts/token/ERC20/utils/SafeERC20.sol\":5720:5831   */\n      tag_158\n      jumpi\n      mload(0x40)\n      shl(0xe5, 0x461bcd)\n      dup2\n      mstore\n        /* \"#utility.yul\":7297:7299   */\n      0x20\n        /* \"@openzeppelin/contracts/token/ERC20/utils/SafeERC20.sol\":5720:5831   */\n      0x04\n      dup3\n      add\n        /* \"#utility.yul\":7279:7300   */\n      mstore\n        /* \"#utility.yul\":7336:7338   */\n      0x2a\n        /* \"#utility.yul\":7316:7334   */\n      0x24\n      dup3\n      add\n        /* \"#utility.yul\":7309:7339   */\n      mstore\n        /* \"#utility.yul\":7375:7409   */\n      0x5361666545524332303a204552433230206f7065726174696f6e20646964206e\n        /* \"#utility.yul\":7355:7373   */\n      0x44\n      dup3\n      add\n        /* \"#utility.yul\":7348:7410   */\n      mstore\n        /* \"#utility.yul\":7446:7458   */\n      0x6f74207375636365656400000000000000000000000000000000000000000000\n        /* \"#utility.yul\":7426:7444   */\n      0x64\n      dup3\n      add\n        /* \"#utility.yul\":7419:7459   */\n      mstore\n        /* \"#utility.yul\":7476:7495   */\n      0x84\n      add\n        /* \"@openzeppelin/contracts/token/ERC20/utils/SafeERC20.sol\":5720:5831   */\n      tag_58\n        /* \"#utility.yul\":7095:7501   */\n      jump\n        /* \"@openzeppelin/contracts/utils/Address.sol\":4108:4331   */\n    tag_169:\n        /* \"@openzeppelin/contracts/utils/Address.sol\":4241:4253   */\n      0x60\n        /* \"@openzeppelin/contracts/utils/Address.sol\":4272:4324   */\n      tag_177\n        /* \"@openzeppelin/contracts/utils/Address.sol\":4294:4300   */\n      dup5\n        /* \"@openzeppelin/contracts/utils/Address.sol\":4302:4306   */\n      dup5\n        /* \"@openzeppelin/contracts/utils/Address.sol\":4308:4309   */\n      0x00\n        /* \"@openzeppelin/contracts/utils/Address.sol\":4311:4323   */\n      dup6\n        /* \"@openzeppelin/contracts/utils/Address.sol\":4272:4293   */\n      tag_178\n        /* \"@openzeppelin/contracts/utils/Address.sol\":4272:4324   */\n      jump\t// in\n    tag_177:\n        /* \"@openzeppelin/contracts/utils/Address.sol\":4265:4324   */\n      swap5\n        /* \"@openzeppelin/contracts/utils/Address.sol\":4108:4331   */\n      swap4\n      pop\n      pop\n      pop\n      pop\n      jump\t// out\n        /* \"@openzeppelin/contracts/utils/Address.sol\":5165:5611   */\n    tag_178:\n        /* \"@openzeppelin/contracts/utils/Address.sol\":5330:5342   */\n      0x60\n        /* \"@openzeppelin/contracts/utils/Address.sol\":5387:5392   */\n      dup3\n        /* \"@openzeppelin/contracts/utils/Address.sol\":5362:5383   */\n      selfbalance\n        /* \"@openzeppelin/contracts/utils/Address.sol\":5362:5392   */\n      lt\n      iszero\n        /* \"@openzeppelin/contracts/utils/Address.sol\":5354:5435   */\n      tag_180\n      jumpi\n      mload(0x40)\n      shl(0xe5, 0x461bcd)\n      dup2\n      mstore\n        /* \"#utility.yul\":7708:7710   */\n      0x20\n        /* \"@openzeppelin/contracts/utils/Address.sol\":5354:5435   */\n      0x04\n      dup3\n      add\n        /* \"#utility.yul\":7690:7711   */\n      mstore\n        /* \"#utility.yul\":7747:7749   */\n      0x26\n        /* \"#utility.yul\":7727:7745   */\n      0x24\n      dup3\n      add\n        /* \"#utility.yul\":7720:7750   */\n      mstore\n        /* \"#utility.yul\":7786:7820   */\n      0x416464726573733a20696e73756666696369656e742062616c616e636520666f\n        /* \"#utility.yul\":7766:7784   */\n      0x44\n      dup3\n      add\n        /* \"#utility.yul\":7759:7821   */\n      mstore\n        /* \"#utility.yul\":7857:7865   */\n      0x722063616c6c0000000000000000000000000000000000000000000000000000\n        /* \"#utility.yul\":7837:7855   */\n      0x64\n      dup3\n      add\n        /* \"#utility.yul\":7830:7866   */\n      mstore\n        /* \"#utility.yul\":7883:7902   */\n      0x84\n      add\n        /* \"@openzeppelin/contracts/utils/Address.sol\":5354:5435   */\n      tag_58\n        /* \"#utility.yul\":7506:7908   */\n      jump\n        /* \"@openzeppelin/contracts/utils/Address.sol\":5354:5435   */\n    tag_180:\n        /* \"@openzeppelin/contracts/utils/Address.sol\":5446:5458   */\n      0x00\n        /* \"@openzeppelin/contracts/utils/Address.sol\":5460:5483   */\n      dup1\n        /* \"@openzeppelin/contracts/utils/Address.sol\":5487:5493   */\n      dup7\n      sub(shl(0xa0, 0x01), 0x01)\n        /* \"@openzeppelin/contracts/utils/Address.sol\":5487:5498   */\n      and\n        /* \"@openzeppelin/contracts/utils/Address.sol\":5506:5511   */\n      dup6\n        /* \"@openzeppelin/contracts/utils/Address.sol\":5513:5517   */\n      dup8\n        /* \"@openzeppelin/contracts/utils/Address.sol\":5487:5518   */\n      mload(0x40)\n      tag_183\n      swap2\n      swap1\n      tag_184\n      jump\t// in\n    tag_183:\n      0x00\n      mload(0x40)\n      dup1\n      dup4\n      sub\n      dup2\n      dup6\n      dup8\n      gas\n      call\n      swap3\n      pop\n      pop\n      pop\n      returndatasize\n      dup1\n      0x00\n      dup2\n      eq\n      tag_187\n      jumpi\n      mload(0x40)\n      swap2\n      pop\n      and(add(returndatasize, 0x3f), not(0x1f))\n      dup3\n      add\n      0x40\n      mstore\n      returndatasize\n      dup3\n      mstore\n      returndatasize\n      0x00\n      0x20\n      dup5\n      add\n      returndatacopy\n      jump(tag_186)\n    tag_187:\n      0x60\n      swap2\n      pop\n    tag_186:\n      pop\n        /* \"@openzeppelin/contracts/utils/Address.sol\":5445:5518   */\n      swap2\n      pop\n      swap2\n      pop\n        /* \"@openzeppelin/contracts/utils/Address.sol\":5535:5604   */\n      tag_188\n        /* \"@openzeppelin/contracts/utils/Address.sol\":5562:5568   */\n      dup8\n        /* \"@openzeppelin/contracts/utils/Address.sol\":5570:5577   */\n      dup4\n        /* \"@openzeppelin/contracts/utils/Address.sol\":5579:5589   */\n      dup4\n        /* \"@openzeppelin/contracts/utils/Address.sol\":5591:5603   */\n      dup8\n        /* \"@openzeppelin/contracts/utils/Address.sol\":5535:5561   */\n      tag_189\n        /* \"@openzeppelin/contracts/utils/Address.sol\":5535:5604   */\n      jump\t// in\n    tag_188:\n        /* \"@openzeppelin/contracts/utils/Address.sol\":5528:5604   */\n      swap8\n        /* \"@openzeppelin/contracts/utils/Address.sol\":5165:5611   */\n      swap7\n      pop\n      pop\n      pop\n      pop\n      pop\n      pop\n      pop\n      jump\t// out\n        /* \"@openzeppelin/contracts/utils/Address.sol\":7671:8299   */\n    tag_189:\n        /* \"@openzeppelin/contracts/utils/Address.sol\":7851:7863   */\n      0x60\n        /* \"@openzeppelin/contracts/utils/Address.sol\":7879:7886   */\n      dup4\n        /* \"@openzeppelin/contracts/utils/Address.sol\":7875:8293   */\n      iszero\n      tag_191\n      jumpi\n        /* \"@openzeppelin/contracts/utils/Address.sol\":7906:7916   */\n      dup3\n        /* \"@openzeppelin/contracts/utils/Address.sol\":7906:7923   */\n      mload\n        /* \"@openzeppelin/contracts/utils/Address.sol\":7927:7928   */\n      0x00\n        /* \"@openzeppelin/contracts/utils/Address.sol\":7906:7928   */\n      sub\n        /* \"@openzeppelin/contracts/utils/Address.sol\":7902:8188   */\n      tag_195\n      jumpi\n      sub(shl(0xa0, 0x01), 0x01)\n        /* \"@openzeppelin/contracts/utils/Address.sol\":1702:1721   */\n      dup6\n      and\n      extcodesize\n        /* \"@openzeppelin/contracts/utils/Address.sol\":8113:8173   */\n      tag_195\n      jumpi\n      mload(0x40)\n      shl(0xe5, 0x461bcd)\n      dup2\n      mstore\n        /* \"#utility.yul\":8662:8664   */\n      0x20\n        /* \"@openzeppelin/contracts/utils/Address.sol\":8113:8173   */\n      0x04\n      dup3\n      add\n        /* \"#utility.yul\":8644:8665   */\n      mstore\n        /* \"#utility.yul\":8701:8703   */\n      0x1d\n        /* \"#utility.yul\":8681:8699   */\n      0x24\n      dup3\n      add\n        /* \"#utility.yul\":8674:8704   */\n      mstore\n        /* \"#utility.yul\":8740:8771   */\n      0x416464726573733a2063616c6c20746f206e6f6e2d636f6e7472616374000000\n        /* \"#utility.yul\":8720:8738   */\n      0x44\n      dup3\n      add\n        /* \"#utility.yul\":8713:8772   */\n      mstore\n        /* \"#utility.yul\":8789:8807   */\n      0x64\n      add\n        /* \"@openzeppelin/contracts/utils/Address.sol\":8113:8173   */\n      tag_58\n        /* \"#utility.yul\":8460:8813   */\n      jump\n        /* \"@openzeppelin/contracts/utils/Address.sol\":8113:8173   */\n    tag_195:\n      pop\n        /* \"@openzeppelin/contracts/utils/Address.sol\":8208:8218   */\n      dup2\n        /* \"@openzeppelin/contracts/utils/Address.sol\":8201:8218   */\n      jump(tag_177)\n        /* \"@openzeppelin/contracts/utils/Address.sol\":7875:8293   */\n    tag_191:\n        /* \"@openzeppelin/contracts/utils/Address.sol\":8249:8282   */\n      tag_177\n        /* \"@openzeppelin/contracts/utils/Address.sol\":8257:8267   */\n      dup4\n        /* \"@openzeppelin/contracts/utils/Address.sol\":8269:8281   */\n      dup4\n        /* \"@openzeppelin/contracts/utils/Address.sol\":8980:8997   */\n      dup2\n      mload\n        /* \"@openzeppelin/contracts/utils/Address.sol\":8980:9001   */\n      iszero\n        /* \"@openzeppelin/contracts/utils/Address.sol\":8976:9355   */\n      tag_203\n      jumpi\n        /* \"@openzeppelin/contracts/utils/Address.sol\":9208:9218   */\n      dup2\n        /* \"@openzeppelin/contracts/utils/Address.sol\":9202:9219   */\n      mload\n        /* \"@openzeppelin/contracts/utils/Address.sol\":9264:9279   */\n      dup1\n        /* \"@openzeppelin/contracts/utils/Address.sol\":9251:9261   */\n      dup4\n        /* \"@openzeppelin/contracts/utils/Address.sol\":9247:9249   */\n      0x20\n        /* \"@openzeppelin/contracts/utils/Address.sol\":9243:9262   */\n      add\n        /* \"@openzeppelin/contracts/utils/Address.sol\":9236:9280   */\n      revert\n        /* \"@openzeppelin/contracts/utils/Address.sol\":8976:9355   */\n    tag_203:\n        /* \"@openzeppelin/contracts/utils/Address.sol\":9331:9343   */\n      dup1\n        /* \"@openzeppelin/contracts/utils/Address.sol\":9324:9344   */\n      mload(0x40)\n      shl(0xe5, 0x461bcd)\n      dup2\n      mstore\n      0x04\n      add\n      tag_58\n      swap2\n      swap1\n      tag_206\n      jump\t// in\n        /* \"#utility.yul\":14:194   */\n    tag_18:\n        /* \"#utility.yul\":73:79   */\n      0x00\n        /* \"#utility.yul\":126:128   */\n      0x20\n        /* \"#utility.yul\":114:123   */\n      dup3\n        /* \"#utility.yul\":105:112   */\n      dup5\n        /* \"#utility.yul\":101:124   */\n      sub\n        /* \"#utility.yul\":97:129   */\n      slt\n        /* \"#utility.yul\":94:146   */\n      iszero\n      tag_212\n      jumpi\n        /* \"#utility.yul\":142:143   */\n      0x00\n        /* \"#utility.yul\":139:140   */\n      dup1\n        /* \"#utility.yul\":132:144   */\n      revert\n        /* \"#utility.yul\":94:146   */\n    tag_212:\n      pop\n        /* \"#utility.yul\":165:188   */\n      calldataload\n      swap2\n        /* \"#utility.yul\":14:194   */\n      swap1\n      pop\n      jump\t// out\n        /* \"#utility.yul\":199:353   */\n    tag_207:\n      sub(shl(0xa0, 0x01), 0x01)\n        /* \"#utility.yul\":278:283   */\n      dup2\n        /* \"#utility.yul\":274:328   */\n      and\n        /* \"#utility.yul\":267:272   */\n      dup2\n        /* \"#utility.yul\":264:329   */\n      eq\n        /* \"#utility.yul\":254:347   */\n      tag_60\n      jumpi\n        /* \"#utility.yul\":343:344   */\n      0x00\n        /* \"#utility.yul\":340:341   */\n      dup1\n        /* \"#utility.yul\":333:345   */\n      revert\n        /* \"#utility.yul\":358:605   */\n    tag_22:\n        /* \"#utility.yul\":417:423   */\n      0x00\n        /* \"#utility.yul\":470:472   */\n      0x20\n        /* \"#utility.yul\":458:467   */\n      dup3\n        /* \"#utility.yul\":449:456   */\n      dup5\n        /* \"#utility.yul\":445:468   */\n      sub\n        /* \"#utility.yul\":441:473   */\n      slt\n        /* \"#utility.yul\":438:490   */\n      iszero\n      tag_216\n      jumpi\n        /* \"#utility.yul\":486:487   */\n      0x00\n        /* \"#utility.yul\":483:484   */\n      dup1\n        /* \"#utility.yul\":476:488   */\n      revert\n        /* \"#utility.yul\":438:490   */\n    tag_216:\n        /* \"#utility.yul\":525:534   */\n      dup2\n        /* \"#utility.yul\":512:535   */\n      calldataload\n        /* \"#utility.yul\":544:575   */\n      tag_148\n        /* \"#utility.yul\":569:574   */\n      dup2\n        /* \"#utility.yul\":544:575   */\n      tag_207\n      jump\t// in\n        /* \"#utility.yul\":610:1451   */\n    tag_25:\n        /* \"#utility.yul\":835:837   */\n      0x20\n        /* \"#utility.yul\":887:908   */\n      dup1\n      dup3\n      mstore\n        /* \"#utility.yul\":957:970   */\n      dup3\n      mload\n        /* \"#utility.yul\":860:878   */\n      dup3\n      dup3\n      add\n        /* \"#utility.yul\":979:1001   */\n      dup2\n      swap1\n      mstore\n        /* \"#utility.yul\":806:810   */\n      0x00\n      swap2\n        /* \"#utility.yul\":835:837   */\n      swap1\n        /* \"#utility.yul\":1020:1022   */\n      0x40\n      swap1\n        /* \"#utility.yul\":1038:1056   */\n      dup2\n      dup6\n      add\n      swap1\n        /* \"#utility.yul\":1079:1094   */\n      dup7\n      dup5\n      add\n        /* \"#utility.yul\":806:810   */\n      dup6\n        /* \"#utility.yul\":1122:1425   */\n    tag_219:\n        /* \"#utility.yul\":1136:1142   */\n      dup3\n        /* \"#utility.yul\":1133:1134   */\n      dup2\n        /* \"#utility.yul\":1130:1143   */\n      lt\n        /* \"#utility.yul\":1122:1425   */\n      iszero\n      tag_221\n      jumpi\n        /* \"#utility.yul\":1195:1208   */\n      dup2\n      mload\n        /* \"#utility.yul\":1237:1246   */\n      dup1\n      mload\n      sub(shl(0xa0, 0x01), 0x01)\n        /* \"#utility.yul\":1233:1291   */\n      and\n        /* \"#utility.yul\":1221:1292   */\n      dup6\n      mstore\n        /* \"#utility.yul\":1332:1343   */\n      dup7\n      add\n        /* \"#utility.yul\":1326:1344   */\n      mload\n        /* \"#utility.yul\":1312:1324   */\n      dup7\n      dup6\n      add\n        /* \"#utility.yul\":1305:1345   */\n      mstore\n        /* \"#utility.yul\":1365:1377   */\n      swap3\n      dup5\n      add\n      swap3\n        /* \"#utility.yul\":1400:1415   */\n      swap1\n      dup6\n      add\n      swap1\n        /* \"#utility.yul\":1158:1159   */\n      0x01\n        /* \"#utility.yul\":1151:1160   */\n      add\n        /* \"#utility.yul\":1122:1425   */\n      jump(tag_219)\n    tag_221:\n      pop\n        /* \"#utility.yul\":1442:1445   */\n      swap2\n      swap8\n        /* \"#utility.yul\":610:1451   */\n      swap7\n      pop\n      pop\n      pop\n      pop\n      pop\n      pop\n      pop\n      jump\t// out\n        /* \"#utility.yul\":2685:2812   */\n    tag_208:\n        /* \"#utility.yul\":2746:2756   */\n      0x4e487b71\n        /* \"#utility.yul\":2741:2744   */\n      0xe0\n        /* \"#utility.yul\":2737:2757   */\n      shl\n        /* \"#utility.yul\":2734:2735   */\n      0x00\n        /* \"#utility.yul\":2727:2758   */\n      mstore\n        /* \"#utility.yul\":2777:2781   */\n      0x11\n        /* \"#utility.yul\":2774:2775   */\n      0x04\n        /* \"#utility.yul\":2767:2782   */\n      mstore\n        /* \"#utility.yul\":2801:2805   */\n      0x24\n        /* \"#utility.yul\":2798:2799   */\n      0x00\n        /* \"#utility.yul\":2791:2806   */\n      revert\n        /* \"#utility.yul\":2817:2942   */\n    tag_56:\n        /* \"#utility.yul\":2882:2891   */\n      dup1\n      dup3\n      add\n        /* \"#utility.yul\":2903:2913   */\n      dup1\n      dup3\n      gt\n        /* \"#utility.yul\":2900:2936   */\n      iszero\n      tag_155\n      jumpi\n        /* \"#utility.yul\":2916:2934   */\n      tag_155\n      tag_208\n      jump\t// in\n        /* \"#utility.yul\":4065:4192   */\n    tag_79:\n        /* \"#utility.yul\":4126:4136   */\n      0x4e487b71\n        /* \"#utility.yul\":4121:4124   */\n      0xe0\n        /* \"#utility.yul\":4117:4137   */\n      shl\n        /* \"#utility.yul\":4114:4115   */\n      0x00\n        /* \"#utility.yul\":4107:4138   */\n      mstore\n        /* \"#utility.yul\":4157:4161   */\n      0x32\n        /* \"#utility.yul\":4154:4155   */\n      0x04\n        /* \"#utility.yul\":4147:4162   */\n      mstore\n        /* \"#utility.yul\":4181:4185   */\n      0x24\n        /* \"#utility.yul\":4178:4179   */\n      0x00\n        /* \"#utility.yul\":4171:4186   */\n      revert\n        /* \"#utility.yul\":4197:4332   */\n    tag_83:\n        /* \"#utility.yul\":4236:4239   */\n      0x00\n        /* \"#utility.yul\":4257:4274   */\n      0x01\n      dup3\n      add\n        /* \"#utility.yul\":4254:4297   */\n      tag_237\n      jumpi\n        /* \"#utility.yul\":4277:4295   */\n      tag_237\n      tag_208\n      jump\t// in\n    tag_237:\n      pop\n        /* \"#utility.yul\":4324:4325   */\n      0x01\n        /* \"#utility.yul\":4313:4326   */\n      add\n      swap1\n        /* \"#utility.yul\":4197:4332   */\n      jump\t// out\n        /* \"#utility.yul\":4337:4473   */\n    tag_88:\n        /* \"#utility.yul\":4376:4379   */\n      0x00\n        /* \"#utility.yul\":4404:4409   */\n      dup2\n        /* \"#utility.yul\":4394:4433   */\n      tag_240\n      jumpi\n        /* \"#utility.yul\":4413:4431   */\n      tag_240\n      tag_208\n      jump\t// in\n    tag_240:\n      pop\n      not(0x00)\n        /* \"#utility.yul\":4449:4467   */\n      add\n      swap1\n        /* \"#utility.yul\":4337:4473   */\n      jump\t// out\n        /* \"#utility.yul\":4881:5008   */\n    tag_100:\n        /* \"#utility.yul\":4942:4952   */\n      0x4e487b71\n        /* \"#utility.yul\":4937:4940   */\n      0xe0\n        /* \"#utility.yul\":4933:4953   */\n      shl\n        /* \"#utility.yul\":4930:4931   */\n      0x00\n        /* \"#utility.yul\":4923:4954   */\n      mstore\n        /* \"#utility.yul\":4973:4977   */\n      0x41\n        /* \"#utility.yul\":4970:4971   */\n      0x04\n        /* \"#utility.yul\":4963:4978   */\n      mstore\n        /* \"#utility.yul\":4997:5001   */\n      0x24\n        /* \"#utility.yul\":4994:4995   */\n      0x00\n        /* \"#utility.yul\":4987:5002   */\n      revert\n        /* \"#utility.yul\":5013:5264   */\n    tag_135:\n        /* \"#utility.yul\":5083:5089   */\n      0x00\n        /* \"#utility.yul\":5136:5138   */\n      0x20\n        /* \"#utility.yul\":5124:5133   */\n      dup3\n        /* \"#utility.yul\":5115:5122   */\n      dup5\n        /* \"#utility.yul\":5111:5134   */\n      sub\n        /* \"#utility.yul\":5107:5139   */\n      slt\n        /* \"#utility.yul\":5104:5156   */\n      iszero\n      tag_244\n      jumpi\n        /* \"#utility.yul\":5152:5153   */\n      0x00\n        /* \"#utility.yul\":5149:5150   */\n      dup1\n        /* \"#utility.yul\":5142:5154   */\n      revert\n        /* \"#utility.yul\":5104:5156   */\n    tag_244:\n        /* \"#utility.yul\":5184:5193   */\n      dup2\n        /* \"#utility.yul\":5178:5194   */\n      mload\n        /* \"#utility.yul\":5203:5234   */\n      tag_148\n        /* \"#utility.yul\":5228:5233   */\n      dup2\n        /* \"#utility.yul\":5203:5234   */\n      tag_207\n      jump\t// in\n        /* \"#utility.yul\":5623:5751   */\n    tag_151:\n        /* \"#utility.yul\":5690:5699   */\n      dup2\n      dup2\n      sub\n        /* \"#utility.yul\":5711:5722   */\n      dup2\n      dup2\n      gt\n        /* \"#utility.yul\":5708:5745   */\n      iszero\n      tag_155\n      jumpi\n        /* \"#utility.yul\":5725:5743   */\n      tag_155\n      tag_208\n      jump\t// in\n        /* \"#utility.yul\":5756:5924   */\n    tag_153:\n        /* \"#utility.yul\":5829:5838   */\n      dup1\n      dup3\n      mul\n        /* \"#utility.yul\":5860:5869   */\n      dup2\n      iszero\n        /* \"#utility.yul\":5877:5892   */\n      dup3\n      dup3\n      div\n        /* \"#utility.yul\":5871:5893   */\n      dup5\n      eq\n        /* \"#utility.yul\":5857:5894   */\n      or\n        /* \"#utility.yul\":5847:5918   */\n      tag_155\n      jumpi\n        /* \"#utility.yul\":5898:5916   */\n      tag_155\n      tag_208\n      jump\t// in\n        /* \"#utility.yul\":5929:6146   */\n    tag_156:\n        /* \"#utility.yul\":5969:5970   */\n      0x00\n        /* \"#utility.yul\":5995:5996   */\n      dup3\n        /* \"#utility.yul\":5985:6117   */\n      tag_254\n      jumpi\n        /* \"#utility.yul\":6039:6049   */\n      0x4e487b71\n        /* \"#utility.yul\":6034:6037   */\n      0xe0\n        /* \"#utility.yul\":6030:6050   */\n      shl\n        /* \"#utility.yul\":6027:6028   */\n      0x00\n        /* \"#utility.yul\":6020:6051   */\n      mstore\n        /* \"#utility.yul\":6074:6078   */\n      0x12\n        /* \"#utility.yul\":6071:6072   */\n      0x04\n        /* \"#utility.yul\":6064:6079   */\n      mstore\n        /* \"#utility.yul\":6102:6106   */\n      0x24\n        /* \"#utility.yul\":6099:6100   */\n      0x00\n        /* \"#utility.yul\":6092:6107   */\n      revert\n        /* \"#utility.yul\":5985:6117   */\n    tag_254:\n      pop\n        /* \"#utility.yul\":6131:6140   */\n      div\n      swap1\n        /* \"#utility.yul\":5929:6146   */\n      jump\t// out\n        /* \"#utility.yul\":6813:7090   */\n    tag_172:\n        /* \"#utility.yul\":6880:6886   */\n      0x00\n        /* \"#utility.yul\":6933:6935   */\n      0x20\n        /* \"#utility.yul\":6921:6930   */\n      dup3\n        /* \"#utility.yul\":6912:6919   */\n      dup5\n        /* \"#utility.yul\":6908:6931   */\n      sub\n        /* \"#utility.yul\":6904:6936   */\n      slt\n        /* \"#utility.yul\":6901:6953   */\n      iszero\n      tag_258\n      jumpi\n        /* \"#utility.yul\":6949:6950   */\n      0x00\n        /* \"#utility.yul\":6946:6947   */\n      dup1\n        /* \"#utility.yul\":6939:6951   */\n      revert\n        /* \"#utility.yul\":6901:6953   */\n    tag_258:\n        /* \"#utility.yul\":6981:6990   */\n      dup2\n        /* \"#utility.yul\":6975:6991   */\n      mload\n        /* \"#utility.yul\":7034:7039   */\n      dup1\n        /* \"#utility.yul\":7027:7040   */\n      iszero\n        /* \"#utility.yul\":7020:7041   */\n      iszero\n        /* \"#utility.yul\":7013:7018   */\n      dup2\n        /* \"#utility.yul\":7010:7042   */\n      eq\n        /* \"#utility.yul\":7000:7060   */\n      tag_148\n      jumpi\n        /* \"#utility.yul\":7056:7057   */\n      0x00\n        /* \"#utility.yul\":7053:7054   */\n      dup1\n        /* \"#utility.yul\":7046:7058   */\n      revert\n        /* \"#utility.yul\":7913:8163   */\n    tag_209:\n        /* \"#utility.yul\":7998:7999   */\n      0x00\n        /* \"#utility.yul\":8008:8121   */\n    tag_263:\n        /* \"#utility.yul\":8022:8028   */\n      dup4\n        /* \"#utility.yul\":8019:8020   */\n      dup2\n        /* \"#utility.yul\":8016:8029   */\n      lt\n        /* \"#utility.yul\":8008:8121   */\n      iszero\n      tag_265\n      jumpi\n        /* \"#utility.yul\":8098:8109   */\n      dup2\n      dup2\n      add\n        /* \"#utility.yul\":8092:8110   */\n      mload\n        /* \"#utility.yul\":8079:8090   */\n      dup4\n      dup3\n      add\n        /* \"#utility.yul\":8072:8111   */\n      mstore\n        /* \"#utility.yul\":8044:8046   */\n      0x20\n        /* \"#utility.yul\":8037:8047   */\n      add\n        /* \"#utility.yul\":8008:8121   */\n      jump(tag_263)\n    tag_265:\n      pop\n      pop\n        /* \"#utility.yul\":8155:8156   */\n      0x00\n        /* \"#utility.yul\":8137:8153   */\n      swap2\n      add\n        /* \"#utility.yul\":8130:8157   */\n      mstore\n        /* \"#utility.yul\":7913:8163   */\n      jump\t// out\n        /* \"#utility.yul\":8168:8455   */\n    tag_184:\n        /* \"#utility.yul\":8297:8300   */\n      0x00\n        /* \"#utility.yul\":8335:8341   */\n      dup3\n        /* \"#utility.yul\":8329:8342   */\n      mload\n        /* \"#utility.yul\":8351:8417   */\n      tag_267\n        /* \"#utility.yul\":8410:8416   */\n      dup2\n        /* \"#utility.yul\":8405:8408   */\n      dup5\n        /* \"#utility.yul\":8398:8402   */\n      0x20\n        /* \"#utility.yul\":8390:8396   */\n      dup8\n        /* \"#utility.yul\":8386:8403   */\n      add\n        /* \"#utility.yul\":8351:8417   */\n      tag_209\n      jump\t// in\n    tag_267:\n        /* \"#utility.yul\":8433:8449   */\n      swap2\n      swap1\n      swap2\n      add\n      swap3\n        /* \"#utility.yul\":8168:8455   */\n      swap2\n      pop\n      pop\n      jump\t// out\n        /* \"#utility.yul\":8818:9214   */\n    tag_206:\n        /* \"#utility.yul\":8967:8969   */\n      0x20\n        /* \"#utility.yul\":8956:8965   */\n      dup2\n        /* \"#utility.yul\":8949:8970   */\n      mstore\n        /* \"#utility.yul\":8930:8934   */\n      0x00\n        /* \"#utility.yul\":8999:9005   */\n      dup3\n        /* \"#utility.yul\":8993:9006   */\n      mload\n        /* \"#utility.yul\":9042:9048   */\n      dup1\n        /* \"#utility.yul\":9037:9039   */\n      0x20\n        /* \"#utility.yul\":9026:9035   */\n      dup5\n        /* \"#utility.yul\":9022:9040   */\n      add\n        /* \"#utility.yul\":9015:9049   */\n      mstore\n        /* \"#utility.yul\":9058:9137   */\n      tag_270\n        /* \"#utility.yul\":9130:9136   */\n      dup2\n        /* \"#utility.yul\":9125:9127   */\n      0x40\n        /* \"#utility.yul\":9114:9123   */\n      dup6\n        /* \"#utility.yul\":9110:9128   */\n      add\n        /* \"#utility.yul\":9105:9107   */\n      0x20\n        /* \"#utility.yul\":9097:9103   */\n      dup8\n        /* \"#utility.yul\":9093:9108   */\n      add\n        /* \"#utility.yul\":9058:9137   */\n      tag_209\n      jump\t// in\n    tag_270:\n        /* \"#utility.yul\":9198:9200   */\n      0x1f\n        /* \"#utility.yul\":9177:9192   */\n      add\n      not(0x1f)\n        /* \"#utility.yul\":9173:9202   */\n      and\n        /* \"#utility.yul\":9158:9203   */\n      swap2\n      swap1\n      swap2\n      add\n        /* \"#utility.yul\":9205:9207   */\n      0x40\n        /* \"#utility.yul\":9154:9208   */\n      add\n      swap3\n        /* \"#utility.yul\":8818:9214   */\n      swap2\n      pop\n      pop\n      jump\t// out\n\n    auxdata: 0xa2646970667358221220e27b56ea0db1a1934c86c04a5bea38f795628b3162cd29ad3eb1f490eb1d3f3b64736f6c63430008110033\n}\n",
    "bytecode": {
      "linkReferences": {},
      "object": "60c0604052620186a060015534801561001757600080fd5b506040516111223803806111228339810160408190526100369161006a565b60016000556001600160a01b0391821660a052166080526100a4565b6001600160a01b038116811461006757600080fd5b50565b6000806040838503121561007d57600080fd5b825161008881610052565b602084015190925061009981610052565b809150509250929050565b60805160a05161103e6100e46000396000818160f301528181610507015281816107f501526108d80152600081816101b701526102a8015261103e6000f3fe608060405234801561001057600080fd5b50600436106100a35760003560e01c80639168ae7211610076578063cda6b8471161005b578063cda6b8471461019f578063f7c618c1146101b2578063f854a27f146101d957600080fd5b80639168ae721461012d578063940670451461017657600080fd5b8063372500ab146100a857806350baa622146100b257806363c28db1146100c55780636588103b146100ee575b600080fd5b6100b06101fa565b005b6100b06100c0366004610de2565b6102da565b6100d86100d3366004610e10565b610585565b6040516100e59190610e2d565b60405180910390f35b6101157f000000000000000000000000000000000000000000000000000000000000000081565b6040516001600160a01b0390911681526020016100e5565b61015b61013b366004610e10565b600260208190526000918252604090912080549181015460039091015483565b604080519384526020840192909252908201526060016100e5565b610115610184366004610de2565b6003602052600090815260409020546001600160a01b031681565b6100b06101ad366004610de2565b61077f565b6101157f000000000000000000000000000000000000000000000000000000000000000081565b6101ec6101e7366004610e10565b6109f6565b6040519081526020016100e5565b33600081815260026020526040812060030154909161021890610a2e565b6102229190610e9b565b9050600081116102855760405162461bcd60e51b815260206004820152602360248201527f596f7520646f6e2774206861766520616e79207265776172647320746f20636c60448201526261696d60e81b60648201526084015b60405180910390fd5b33600081815260026020819052604082204291810191909155600301556102d7907f00000000000000000000000000000000000000000000000000000000000000006001600160a01b03169083610a87565b50565b6102e2610af3565b3360009081526002602052604090205461033e5760405162461bcd60e51b815260206004820181905260248201527f596f7520646f6e2774206861766520616e7920746f6b656e73207374616b6564604482015260640161027c565b6000818152600360205260409020546001600160a01b031633146103a45760405162461bcd60e51b815260206004820152601860248201527f596f7520646f6e2774206f776e207468697320746f6b656e0000000000000000604482015260640161027c565b60006103af33610a2e565b336000908152600260205260408120600301805492935083929091906103d6908490610e9b565b9091555060009050805b336000908152600260205260409020600101548110156104525733600090815260026020526040902060010180548591908390811061042157610421610eae565b9060005260206000209060020201600101540361044057809150610452565b8061044a81610ec4565b9150506103e0565b5033600090815260026020526040812060010180548390811061047757610477610eae565b6000918252602080832060029283020180546001600160a01b0319166001600160a01b039590951694909417909355338252909152604081208054916104bc83610edd565b90915550506000838152600360205260409081902080546001600160a01b031916905551632142170760e11b8152306004820152336024820152604481018490526001600160a01b037f000000000000000000000000000000000000000000000000000000000000000016906342842e0e90606401600060405180830381600087803b15801561054b57600080fd5b505af115801561055f573d6000803e3d6000fd5b505033600090815260026020819052604090912042910155506102d79250610b4c915050565b6001600160a01b0381166000908152600260205260409020546060901561073b576001600160a01b03821660009081526002602052604081205467ffffffffffffffff8111156105d7576105d7610ef4565b60405190808252806020026020018201604052801561061c57816020015b60408051808201909152600080825260208201528152602001906001900390816105f55790505b5090506000805b6001600160a01b038516600090815260026020526040902060010154811015610732576001600160a01b038516600090815260026020526040812060010180548390811061067357610673610eae565b60009182526020909120600290910201546001600160a01b031614610720576001600160a01b03851660009081526002602052604090206001018054829081106106bf576106bf610eae565b60009182526020918290206040805180820190915260029092020180546001600160a01b031682526001015491810191909152835184908490811061070657610706610eae565b6020026020010181905250818061071c90610ec4565b9250505b8061072a81610ec4565b915050610623565b50909392505050565b6040805160008082526020820190925290610778565b60408051808201909152600080825260208201528152602001906001900390816107515790505b5092915050565b610787610af3565b33600090815260026020526040902054156107d55760006107a733610a2e565b336000908152600260205260408120600301805492935083929091906107ce908490610e9b565b9091555050505b6040516331a9108f60e11b81526004810182905233906001600160a01b037f00000000000000000000000000000000000000000000000000000000000000001690636352211e90602401602060405180830381865afa15801561083c573d6000803e3d6000fd5b505050506040513d601f19601f820116820180604052508101906108609190610f0a565b6001600160a01b0316146108b65760405162461bcd60e51b815260206004820152601960248201527f596f7520646f6e742774206f776e207468697320746f6b656e00000000000000604482015260640161027c565b6040516323b872dd60e01b8152336004820152306024820152604481018290527f00000000000000000000000000000000000000000000000000000000000000006001600160a01b0316906323b872dd90606401600060405180830381600087803b15801561092457600080fd5b505af1158015610938573d6000803e3d6000fd5b50506040805180820182523380825260208083018781526000838152600280845295812060018082018054808301825590845294832087519590980290970180546001600160a01b0319166001600160a01b03909516949094178455915192909501919091559083528054919450909250906109b383610ec4565b909155505050600081815260036020908152604080832080546001600160a01b031916339081179091558352600291829052909120429101556102d76001600055565b6001600160a01b0381166000908152600260205260408120600301548190610a1d84610a2e565b610a279190610e9b565b9392505050565b6001546001600160a01b0382166000908152600260208190526040822080549101549192610e1092909190610a639042610f27565b610a6d9190610f3a565b610a779190610f3a565b610a819190610f51565b92915050565b604080516001600160a01b038416602482015260448082018490528251808303909101815260649091019091526020810180517bffffffffffffffffffffffffffffffffffffffffffffffffffffffff1663a9059cbb60e01b179052610aee908490610b53565b505050565b600260005403610b455760405162461bcd60e51b815260206004820152601f60248201527f5265656e7472616e637947756172643a207265656e7472616e742063616c6c00604482015260640161027c565b6002600055565b6001600055565b6000610ba8826040518060400160405280602081526020017f5361666545524332303a206c6f772d6c6576656c2063616c6c206661696c6564815250856001600160a01b0316610c3b9092919063ffffffff16565b9050805160001480610bc9575080806020019051810190610bc99190610f73565b610aee5760405162461bcd60e51b815260206004820152602a60248201527f5361666545524332303a204552433230206f7065726174696f6e20646964206e60448201527f6f74207375636365656400000000000000000000000000000000000000000000606482015260840161027c565b6060610c4a8484600085610c52565b949350505050565b606082471015610cca5760405162461bcd60e51b815260206004820152602660248201527f416464726573733a20696e73756666696369656e742062616c616e636520666f60448201527f722063616c6c0000000000000000000000000000000000000000000000000000606482015260840161027c565b600080866001600160a01b03168587604051610ce69190610fb9565b60006040518083038185875af1925050503d8060008114610d23576040519150601f19603f3d011682016040523d82523d6000602084013e610d28565b606091505b5091509150610d3987838387610d44565b979650505050505050565b60608315610db3578251600003610dac576001600160a01b0385163b610dac5760405162461bcd60e51b815260206004820152601d60248201527f416464726573733a2063616c6c20746f206e6f6e2d636f6e7472616374000000604482015260640161027c565b5081610c4a565b610c4a8383815115610dc85781518083602001fd5b8060405162461bcd60e51b815260040161027c9190610fd5565b600060208284031215610df457600080fd5b5035919050565b6001600160a01b03811681146102d757600080fd5b600060208284031215610e2257600080fd5b8135610a2781610dfb565b602080825282518282018190526000919060409081850190868401855b82811015610e7857815180516001600160a01b03168552860151868501529284019290850190600101610e4a565b5091979650505050505050565b634e487b7160e01b600052601160045260246000fd5b80820180821115610a8157610a81610e85565b634e487b7160e01b600052603260045260246000fd5b600060018201610ed657610ed6610e85565b5060010190565b600081610eec57610eec610e85565b506000190190565b634e487b7160e01b600052604160045260246000fd5b600060208284031215610f1c57600080fd5b8151610a2781610dfb565b81810381811115610a8157610a81610e85565b8082028115828204841417610a8157610a81610e85565b600082610f6e57634e487b7160e01b600052601260045260246000fd5b500490565b600060208284031215610f8557600080fd5b81518015158114610a2757600080fd5b60005b83811015610fb0578181015183820152602001610f98565b50506000910152565b60008251610fcb818460208701610f95565b9190910192915050565b6020815260008251806020840152610ff4816040850160208701610f95565b601f01601f1916919091016040019291505056fea2646970667358221220e27b56ea0db1a1934c86c04a5bea38f795628b3162cd29ad3eb1f490eb1d3f3b64736f6c63430008110033",
      "opcodes": "PUSH1 0xC0 PUSH1 0x40 MSTORE PUSH3 0x186A0 PUSH1 0x1 SSTORE CALLVALUE DUP1 ISZERO PUSH2 0x17 JUMPI PUSH1 0x0 DUP1 REVERT JUMPDEST POP PUSH1 0x40 MLOAD PUSH2 0x1122 CODESIZE SUB DUP1 PUSH2 0x1122 DUP4 CODECOPY DUP2 ADD PUSH1 0x40 DUP2 SWAP1 MSTORE PUSH2 0x36 SWAP2 PUSH2 0x6A JUMP JUMPDEST PUSH1 0x1 PUSH1 0x0 SSTORE PUSH1 0x1 PUSH1 0x1 PUSH1 0xA0 SHL SUB SWAP2 DUP3 AND PUSH1 0xA0 MSTORE AND PUSH1 0x80 MSTORE PUSH2 0xA4 JUMP JUMPDEST PUSH1 0x1 PUSH1 0x1 PUSH1 0xA0 SHL SUB DUP2 AND DUP2 EQ PUSH2 0x67 JUMPI PUSH1 0x0 DUP1 REVERT JUMPDEST POP JUMP JUMPDEST PUSH1 0x0 DUP1 PUSH1 0x40 DUP4 DUP6 SUB SLT ISZERO PUSH2 0x7D JUMPI PUSH1 0x0 DUP1 REVERT JUMPDEST DUP3 MLOAD PUSH2 0x88 DUP2 PUSH2 0x52 JUMP JUMPDEST PUSH1 0x20 DUP5 ADD MLOAD SWAP1 SWAP3 POP PUSH2 0x99 DUP2 PUSH2 0x52 JUMP JUMPDEST DUP1 SWAP2 POP POP SWAP3 POP SWAP3 SWAP1 POP JUMP JUMPDEST PUSH1 0x80 MLOAD PUSH1 0xA0 MLOAD PUSH2 0x103E PUSH2 0xE4 PUSH1 0x0 CODECOPY PUSH1 0x0 DUP2 DUP2 PUSH1 0xF3 ADD MSTORE DUP2 DUP2 PUSH2 0x507 ADD MSTORE DUP2 DUP2 PUSH2 0x7F5 ADD MSTORE PUSH2 0x8D8 ADD MSTORE PUSH1 0x0 DUP2 DUP2 PUSH2 0x1B7 ADD MSTORE PUSH2 0x2A8 ADD MSTORE PUSH2 0x103E PUSH1 0x0 RETURN INVALID PUSH1 0x80 PUSH1 0x40 MSTORE CALLVALUE DUP1 ISZERO PUSH2 0x10 JUMPI PUSH1 0x0 DUP1 REVERT JUMPDEST POP PUSH1 0x4 CALLDATASIZE LT PUSH2 0xA3 JUMPI PUSH1 0x0 CALLDATALOAD PUSH1 0xE0 SHR DUP1 PUSH4 0x9168AE72 GT PUSH2 0x76 JUMPI DUP1 PUSH4 0xCDA6B847 GT PUSH2 0x5B JUMPI DUP1 PUSH4 0xCDA6B847 EQ PUSH2 0x19F JUMPI DUP1 PUSH4 0xF7C618C1 EQ PUSH2 0x1B2 JUMPI DUP1 PUSH4 0xF854A27F EQ PUSH2 0x1D9 JUMPI PUSH1 0x0 DUP1 REVERT JUMPDEST DUP1 PUSH4 0x9168AE72 EQ PUSH2 0x12D JUMPI DUP1 PUSH4 0x94067045 EQ PUSH2 0x176 JUMPI PUSH1 0x0 DUP1 REVERT JUMPDEST DUP1 PUSH4 0x372500AB EQ PUSH2 0xA8 JUMPI DUP1 PUSH4 0x50BAA622 EQ PUSH2 0xB2 JUMPI DUP1 PUSH4 0x63C28DB1 EQ PUSH2 0xC5 JUMPI DUP1 PUSH4 0x6588103B EQ PUSH2 0xEE JUMPI JUMPDEST PUSH1 0x0 DUP1 REVERT JUMPDEST PUSH2 0xB0 PUSH2 0x1FA JUMP JUMPDEST STOP JUMPDEST PUSH2 0xB0 PUSH2 0xC0 CALLDATASIZE PUSH1 0x4 PUSH2 0xDE2 JUMP JUMPDEST PUSH2 0x2DA JUMP JUMPDEST PUSH2 0xD8 PUSH2 0xD3 CALLDATASIZE PUSH1 0x4 PUSH2 0xE10 JUMP JUMPDEST PUSH2 0x585 JUMP JUMPDEST PUSH1 0x40 MLOAD PUSH2 0xE5 SWAP2 SWAP1 PUSH2 0xE2D JUMP JUMPDEST PUSH1 0x40 MLOAD DUP1 SWAP2 SUB SWAP1 RETURN JUMPDEST PUSH2 0x115 PUSH32 0x0 DUP2 JUMP JUMPDEST PUSH1 0x40 MLOAD PUSH1 0x1 PUSH1 0x1 PUSH1 0xA0 SHL SUB SWAP1 SWAP2 AND DUP2 MSTORE PUSH1 0x20 ADD PUSH2 0xE5 JUMP JUMPDEST PUSH2 0x15B PUSH2 0x13B CALLDATASIZE PUSH1 0x4 PUSH2 0xE10 JUMP JUMPDEST PUSH1 0x2 PUSH1 0x20 DUP2 SWAP1 MSTORE PUSH1 0x0 SWAP2 DUP3 MSTORE PUSH1 0x40 SWAP1 SWAP2 KECCAK256 DUP1 SLOAD SWAP2 DUP2 ADD SLOAD PUSH1 0x3 SWAP1 SWAP2 ADD SLOAD DUP4 JUMP JUMPDEST PUSH1 0x40 DUP1 MLOAD SWAP4 DUP5 MSTORE PUSH1 0x20 DUP5 ADD SWAP3 SWAP1 SWAP3 MSTORE SWAP1 DUP3 ADD MSTORE PUSH1 0x60 ADD PUSH2 0xE5 JUMP JUMPDEST PUSH2 0x115 PUSH2 0x184 CALLDATASIZE PUSH1 0x4 PUSH2 0xDE2 JUMP JUMPDEST PUSH1 0x3 PUSH1 0x20 MSTORE PUSH1 0x0 SWAP1 DUP2 MSTORE PUSH1 0x40 SWAP1 KECCAK256 SLOAD PUSH1 0x1 PUSH1 0x1 PUSH1 0xA0 SHL SUB AND DUP2 JUMP JUMPDEST PUSH2 0xB0 PUSH2 0x1AD CALLDATASIZE PUSH1 0x4 PUSH2 0xDE2 JUMP JUMPDEST PUSH2 0x77F JUMP JUMPDEST PUSH2 0x115 PUSH32 0x0 DUP2 JUMP JUMPDEST PUSH2 0x1EC PUSH2 0x1E7 CALLDATASIZE PUSH1 0x4 PUSH2 0xE10 JUMP JUMPDEST PUSH2 0x9F6 JUMP JUMPDEST PUSH1 0x40 MLOAD SWAP1 DUP2 MSTORE PUSH1 0x20 ADD PUSH2 0xE5 JUMP JUMPDEST CALLER PUSH1 0x0 DUP2 DUP2 MSTORE PUSH1 0x2 PUSH1 0x20 MSTORE PUSH1 0x40 DUP2 KECCAK256 PUSH1 0x3 ADD SLOAD SWAP1 SWAP2 PUSH2 0x218 SWAP1 PUSH2 0xA2E JUMP JUMPDEST PUSH2 0x222 SWAP2 SWAP1 PUSH2 0xE9B JUMP JUMPDEST SWAP1 POP PUSH1 0x0 DUP2 GT PUSH2 0x285 JUMPI PUSH1 0x40 MLOAD PUSH3 0x461BCD PUSH1 0xE5 SHL DUP2 MSTORE PUSH1 0x20 PUSH1 0x4 DUP3 ADD MSTORE PUSH1 0x23 PUSH1 0x24 DUP3 ADD MSTORE PUSH32 0x596F7520646F6E2774206861766520616E79207265776172647320746F20636C PUSH1 0x44 DUP3 ADD MSTORE PUSH3 0x61696D PUSH1 0xE8 SHL PUSH1 0x64 DUP3 ADD MSTORE PUSH1 0x84 ADD JUMPDEST PUSH1 0x40 MLOAD DUP1 SWAP2 SUB SWAP1 REVERT JUMPDEST CALLER PUSH1 0x0 DUP2 DUP2 MSTORE PUSH1 0x2 PUSH1 0x20 DUP2 SWAP1 MSTORE PUSH1 0x40 DUP3 KECCAK256 TIMESTAMP SWAP2 DUP2 ADD SWAP2 SWAP1 SWAP2 SSTORE PUSH1 0x3 ADD SSTORE PUSH2 0x2D7 SWAP1 PUSH32 0x0 PUSH1 0x1 PUSH1 0x1 PUSH1 0xA0 SHL SUB AND SWAP1 DUP4 PUSH2 0xA87 JUMP JUMPDEST POP JUMP JUMPDEST PUSH2 0x2E2 PUSH2 0xAF3 JUMP JUMPDEST CALLER PUSH1 0x0 SWAP1 DUP2 MSTORE PUSH1 0x2 PUSH1 0x20 MSTORE PUSH1 0x40 SWAP1 KECCAK256 SLOAD PUSH2 0x33E JUMPI PUSH1 0x40 MLOAD PUSH3 0x461BCD PUSH1 0xE5 SHL DUP2 MSTORE PUSH1 0x20 PUSH1 0x4 DUP3 ADD DUP2 SWAP1 MSTORE PUSH1 0x24 DUP3 ADD MSTORE PUSH32 0x596F7520646F6E2774206861766520616E7920746F6B656E73207374616B6564 PUSH1 0x44 DUP3 ADD MSTORE PUSH1 0x64 ADD PUSH2 0x27C JUMP JUMPDEST PUSH1 0x0 DUP2 DUP2 MSTORE PUSH1 0x3 PUSH1 0x20 MSTORE PUSH1 0x40 SWAP1 KECCAK256 SLOAD PUSH1 0x1 PUSH1 0x1 PUSH1 0xA0 SHL SUB AND CALLER EQ PUSH2 0x3A4 JUMPI PUSH1 0x40 MLOAD PUSH3 0x461BCD PUSH1 0xE5 SHL DUP2 MSTORE PUSH1 0x20 PUSH1 0x4 DUP3 ADD MSTORE PUSH1 0x18 PUSH1 0x24 DUP3 ADD MSTORE PUSH32 0x596F7520646F6E2774206F776E207468697320746F6B656E0000000000000000 PUSH1 0x44 DUP3 ADD MSTORE PUSH1 0x64 ADD PUSH2 0x27C JUMP JUMPDEST PUSH1 0x0 PUSH2 0x3AF CALLER PUSH2 0xA2E JUMP JUMPDEST CALLER PUSH1 0x0 SWAP1 DUP2 MSTORE PUSH1 0x2 PUSH1 0x20 MSTORE PUSH1 0x40 DUP2 KECCAK256 PUSH1 0x3 ADD DUP1 SLOAD SWAP3 SWAP4 POP DUP4 SWAP3 SWAP1 SWAP2 SWAP1 PUSH2 0x3D6 SWAP1 DUP5 SWAP1 PUSH2 0xE9B JUMP JUMPDEST SWAP1 SWAP2 SSTORE POP PUSH1 0x0 SWAP1 POP DUP1 JUMPDEST CALLER PUSH1 0x0 SWAP1 DUP2 MSTORE PUSH1 0x2 PUSH1 0x20 MSTORE PUSH1 0x40 SWAP1 KECCAK256 PUSH1 0x1 ADD SLOAD DUP2 LT ISZERO PUSH2 0x452 JUMPI CALLER PUSH1 0x0 SWAP1 DUP2 MSTORE PUSH1 0x2 PUSH1 0x20 MSTORE PUSH1 0x40 SWAP1 KECCAK256 PUSH1 0x1 ADD DUP1 SLOAD DUP6 SWAP2 SWAP1 DUP4 SWAP1 DUP2 LT PUSH2 0x421 JUMPI PUSH2 0x421 PUSH2 0xEAE JUMP JUMPDEST SWAP1 PUSH1 0x0 MSTORE PUSH1 0x20 PUSH1 0x0 KECCAK256 SWAP1 PUSH1 0x2 MUL ADD PUSH1 0x1 ADD SLOAD SUB PUSH2 0x440 JUMPI DUP1 SWAP2 POP PUSH2 0x452 JUMP JUMPDEST DUP1 PUSH2 0x44A DUP2 PUSH2 0xEC4 JUMP JUMPDEST SWAP2 POP POP PUSH2 0x3E0 JUMP JUMPDEST POP CALLER PUSH1 0x0 SWAP1 DUP2 MSTORE PUSH1 0x2 PUSH1 0x20 MSTORE PUSH1 0x40 DUP2 KECCAK256 PUSH1 0x1 ADD DUP1 SLOAD DUP4 SWAP1 DUP2 LT PUSH2 0x477 JUMPI PUSH2 0x477 PUSH2 0xEAE JUMP JUMPDEST PUSH1 0x0 SWAP2 DUP3 MSTORE PUSH1 0x20 DUP1 DUP4 KECCAK256 PUSH1 0x2 SWAP3 DUP4 MUL ADD DUP1 SLOAD PUSH1 0x1 PUSH1 0x1 PUSH1 0xA0 SHL SUB NOT AND PUSH1 0x1 PUSH1 0x1 PUSH1 0xA0 SHL SUB SWAP6 SWAP1 SWAP6 AND SWAP5 SWAP1 SWAP5 OR SWAP1 SWAP4 SSTORE CALLER DUP3 MSTORE SWAP1 SWAP2 MSTORE PUSH1 0x40 DUP2 KECCAK256 DUP1 SLOAD SWAP2 PUSH2 0x4BC DUP4 PUSH2 0xEDD JUMP JUMPDEST SWAP1 SWAP2 SSTORE POP POP PUSH1 0x0 DUP4 DUP2 MSTORE PUSH1 0x3 PUSH1 0x20 MSTORE PUSH1 0x40 SWAP1 DUP2 SWAP1 KECCAK256 DUP1 SLOAD PUSH1 0x1 PUSH1 0x1 PUSH1 0xA0 SHL SUB NOT AND SWAP1 SSTORE MLOAD PUSH4 0x21421707 PUSH1 0xE1 SHL DUP2 MSTORE ADDRESS PUSH1 0x4 DUP3 ADD MSTORE CALLER PUSH1 0x24 DUP3 ADD MSTORE PUSH1 0x44 DUP2 ADD DUP5 SWAP1 MSTORE PUSH1 0x1 PUSH1 0x1 PUSH1 0xA0 SHL SUB PUSH32 0x0 AND SWAP1 PUSH4 0x42842E0E SWAP1 PUSH1 0x64 ADD PUSH1 0x0 PUSH1 0x40 MLOAD DUP1 DUP4 SUB DUP2 PUSH1 0x0 DUP8 DUP1 EXTCODESIZE ISZERO DUP1 ISZERO PUSH2 0x54B JUMPI PUSH1 0x0 DUP1 REVERT JUMPDEST POP GAS CALL ISZERO DUP1 ISZERO PUSH2 0x55F JUMPI RETURNDATASIZE PUSH1 0x0 DUP1 RETURNDATACOPY RETURNDATASIZE PUSH1 0x0 REVERT JUMPDEST POP POP CALLER PUSH1 0x0 SWAP1 DUP2 MSTORE PUSH1 0x2 PUSH1 0x20 DUP2 SWAP1 MSTORE PUSH1 0x40 SWAP1 SWAP2 KECCAK256 TIMESTAMP SWAP2 ADD SSTORE POP PUSH2 0x2D7 SWAP3 POP PUSH2 0xB4C SWAP2 POP POP JUMP JUMPDEST PUSH1 0x1 PUSH1 0x1 PUSH1 0xA0 SHL SUB DUP2 AND PUSH1 0x0 SWAP1 DUP2 MSTORE PUSH1 0x2 PUSH1 0x20 MSTORE PUSH1 0x40 SWAP1 KECCAK256 SLOAD PUSH1 0x60 SWAP1 ISZERO PUSH2 0x73B JUMPI PUSH1 0x1 PUSH1 0x1 PUSH1 0xA0 SHL SUB DUP3 AND PUSH1 0x0 SWAP1 DUP2 MSTORE PUSH1 0x2 PUSH1 0x20 MSTORE PUSH1 0x40 DUP2 KECCAK256 SLOAD PUSH8 0xFFFFFFFFFFFFFFFF DUP2 GT ISZERO PUSH2 0x5D7 JUMPI PUSH2 0x5D7 PUSH2 0xEF4 JUMP JUMPDEST PUSH1 0x40 MLOAD SWAP1 DUP1 DUP3 MSTORE DUP1 PUSH1 0x20 MUL PUSH1 0x20 ADD DUP3 ADD PUSH1 0x40 MSTORE DUP1 ISZERO PUSH2 0x61C JUMPI DUP2 PUSH1 0x20 ADD JUMPDEST PUSH1 0x40 DUP1 MLOAD DUP1 DUP3 ADD SWAP1 SWAP2 MSTORE PUSH1 0x0 DUP1 DUP3 MSTORE PUSH1 0x20 DUP3 ADD MSTORE DUP2 MSTORE PUSH1 0x20 ADD SWAP1 PUSH1 0x1 SWAP1 SUB SWAP1 DUP2 PUSH2 0x5F5 JUMPI SWAP1 POP JUMPDEST POP SWAP1 POP PUSH1 0x0 DUP1 JUMPDEST PUSH1 0x1 PUSH1 0x1 PUSH1 0xA0 SHL SUB DUP6 AND PUSH1 0x0 SWAP1 DUP2 MSTORE PUSH1 0x2 PUSH1 0x20 MSTORE PUSH1 0x40 SWAP1 KECCAK256 PUSH1 0x1 ADD SLOAD DUP2 LT ISZERO PUSH2 0x732 JUMPI PUSH1 0x1 PUSH1 0x1 PUSH1 0xA0 SHL SUB DUP6 AND PUSH1 0x0 SWAP1 DUP2 MSTORE PUSH1 0x2 PUSH1 0x20 MSTORE PUSH1 0x40 DUP2 KECCAK256 PUSH1 0x1 ADD DUP1 SLOAD DUP4 SWAP1 DUP2 LT PUSH2 0x673 JUMPI PUSH2 0x673 PUSH2 0xEAE JUMP JUMPDEST PUSH1 0x0 SWAP2 DUP3 MSTORE PUSH1 0x20 SWAP1 SWAP2 KECCAK256 PUSH1 0x2 SWAP1 SWAP2 MUL ADD SLOAD PUSH1 0x1 PUSH1 0x1 PUSH1 0xA0 SHL SUB AND EQ PUSH2 0x720 JUMPI PUSH1 0x1 PUSH1 0x1 PUSH1 0xA0 SHL SUB DUP6 AND PUSH1 0x0 SWAP1 DUP2 MSTORE PUSH1 0x2 PUSH1 0x20 MSTORE PUSH1 0x40 SWAP1 KECCAK256 PUSH1 0x1 ADD DUP1 SLOAD DUP3 SWAP1 DUP2 LT PUSH2 0x6BF JUMPI PUSH2 0x6BF PUSH2 0xEAE JUMP JUMPDEST PUSH1 0x0 SWAP2 DUP3 MSTORE PUSH1 0x20 SWAP2 DUP3 SWAP1 KECCAK256 PUSH1 0x40 DUP1 MLOAD DUP1 DUP3 ADD SWAP1 SWAP2 MSTORE PUSH1 0x2 SWAP1 SWAP3 MUL ADD DUP1 SLOAD PUSH1 0x1 PUSH1 0x1 PUSH1 0xA0 SHL SUB AND DUP3 MSTORE PUSH1 0x1 ADD SLOAD SWAP2 DUP2 ADD SWAP2 SWAP1 SWAP2 MSTORE DUP4 MLOAD DUP5 SWAP1 DUP5 SWAP1 DUP2 LT PUSH2 0x706 JUMPI PUSH2 0x706 PUSH2 0xEAE JUMP JUMPDEST PUSH1 0x20 MUL PUSH1 0x20 ADD ADD DUP2 SWAP1 MSTORE POP DUP2 DUP1 PUSH2 0x71C SWAP1 PUSH2 0xEC4 JUMP JUMPDEST SWAP3 POP POP JUMPDEST DUP1 PUSH2 0x72A DUP2 PUSH2 0xEC4 JUMP JUMPDEST SWAP2 POP POP PUSH2 0x623 JUMP JUMPDEST POP SWAP1 SWAP4 SWAP3 POP POP POP JUMP JUMPDEST PUSH1 0x40 DUP1 MLOAD PUSH1 0x0 DUP1 DUP3 MSTORE PUSH1 0x20 DUP3 ADD SWAP1 SWAP3 MSTORE SWAP1 PUSH2 0x778 JUMP JUMPDEST PUSH1 0x40 DUP1 MLOAD DUP1 DUP3 ADD SWAP1 SWAP2 MSTORE PUSH1 0x0 DUP1 DUP3 MSTORE PUSH1 0x20 DUP3 ADD MSTORE DUP2 MSTORE PUSH1 0x20 ADD SWAP1 PUSH1 0x1 SWAP1 SUB SWAP1 DUP2 PUSH2 0x751 JUMPI SWAP1 POP JUMPDEST POP SWAP3 SWAP2 POP POP JUMP JUMPDEST PUSH2 0x787 PUSH2 0xAF3 JUMP JUMPDEST CALLER PUSH1 0x0 SWAP1 DUP2 MSTORE PUSH1 0x2 PUSH1 0x20 MSTORE PUSH1 0x40 SWAP1 KECCAK256 SLOAD ISZERO PUSH2 0x7D5 JUMPI PUSH1 0x0 PUSH2 0x7A7 CALLER PUSH2 0xA2E JUMP JUMPDEST CALLER PUSH1 0x0 SWAP1 DUP2 MSTORE PUSH1 0x2 PUSH1 0x20 MSTORE PUSH1 0x40 DUP2 KECCAK256 PUSH1 0x3 ADD DUP1 SLOAD SWAP3 SWAP4 POP DUP4 SWAP3 SWAP1 SWAP2 SWAP1 PUSH2 0x7CE SWAP1 DUP5 SWAP1 PUSH2 0xE9B JUMP JUMPDEST SWAP1 SWAP2 SSTORE POP POP POP JUMPDEST PUSH1 0x40 MLOAD PUSH4 0x31A9108F PUSH1 0xE1 SHL DUP2 MSTORE PUSH1 0x4 DUP2 ADD DUP3 SWAP1 MSTORE CALLER SWAP1 PUSH1 0x1 PUSH1 0x1 PUSH1 0xA0 SHL SUB PUSH32 0x0 AND SWAP1 PUSH4 0x6352211E SWAP1 PUSH1 0x24 ADD PUSH1 0x20 PUSH1 0x40 MLOAD DUP1 DUP4 SUB DUP2 DUP7 GAS STATICCALL ISZERO DUP1 ISZERO PUSH2 0x83C JUMPI RETURNDATASIZE PUSH1 0x0 DUP1 RETURNDATACOPY RETURNDATASIZE PUSH1 0x0 REVERT JUMPDEST POP POP POP POP PUSH1 0x40 MLOAD RETURNDATASIZE PUSH1 0x1F NOT PUSH1 0x1F DUP3 ADD AND DUP3 ADD DUP1 PUSH1 0x40 MSTORE POP DUP2 ADD SWAP1 PUSH2 0x860 SWAP2 SWAP1 PUSH2 0xF0A JUMP JUMPDEST PUSH1 0x1 PUSH1 0x1 PUSH1 0xA0 SHL SUB AND EQ PUSH2 0x8B6 JUMPI PUSH1 0x40 MLOAD PUSH3 0x461BCD PUSH1 0xE5 SHL DUP2 MSTORE PUSH1 0x20 PUSH1 0x4 DUP3 ADD MSTORE PUSH1 0x19 PUSH1 0x24 DUP3 ADD MSTORE PUSH32 0x596F7520646F6E742774206F776E207468697320746F6B656E00000000000000 PUSH1 0x44 DUP3 ADD MSTORE PUSH1 0x64 ADD PUSH2 0x27C JUMP JUMPDEST PUSH1 0x40 MLOAD PUSH4 0x23B872DD PUSH1 0xE0 SHL DUP2 MSTORE CALLER PUSH1 0x4 DUP3 ADD MSTORE ADDRESS PUSH1 0x24 DUP3 ADD MSTORE PUSH1 0x44 DUP2 ADD DUP3 SWAP1 MSTORE PUSH32 0x0 PUSH1 0x1 PUSH1 0x1 PUSH1 0xA0 SHL SUB AND SWAP1 PUSH4 0x23B872DD SWAP1 PUSH1 0x64 ADD PUSH1 0x0 PUSH1 0x40 MLOAD DUP1 DUP4 SUB DUP2 PUSH1 0x0 DUP8 DUP1 EXTCODESIZE ISZERO DUP1 ISZERO PUSH2 0x924 JUMPI PUSH1 0x0 DUP1 REVERT JUMPDEST POP GAS CALL ISZERO DUP1 ISZERO PUSH2 0x938 JUMPI RETURNDATASIZE PUSH1 0x0 DUP1 RETURNDATACOPY RETURNDATASIZE PUSH1 0x0 REVERT JUMPDEST POP POP PUSH1 0x40 DUP1 MLOAD DUP1 DUP3 ADD DUP3 MSTORE CALLER DUP1 DUP3 MSTORE PUSH1 0x20 DUP1 DUP4 ADD DUP8 DUP2 MSTORE PUSH1 0x0 DUP4 DUP2 MSTORE PUSH1 0x2 DUP1 DUP5 MSTORE SWAP6 DUP2 KECCAK256 PUSH1 0x1 DUP1 DUP3 ADD DUP1 SLOAD DUP1 DUP4 ADD DUP3 SSTORE SWAP1 DUP5 MSTORE SWAP5 DUP4 KECCAK256 DUP8 MLOAD SWAP6 SWAP1 SWAP9 MUL SWAP1 SWAP8 ADD DUP1 SLOAD PUSH1 0x1 PUSH1 0x1 PUSH1 0xA0 SHL SUB NOT AND PUSH1 0x1 PUSH1 0x1 PUSH1 0xA0 SHL SUB SWAP1 SWAP6 AND SWAP5 SWAP1 SWAP5 OR DUP5 SSTORE SWAP2 MLOAD SWAP3 SWAP1 SWAP6 ADD SWAP2 SWAP1 SWAP2 SSTORE SWAP1 DUP4 MSTORE DUP1 SLOAD SWAP2 SWAP5 POP SWAP1 SWAP3 POP SWAP1 PUSH2 0x9B3 DUP4 PUSH2 0xEC4 JUMP JUMPDEST SWAP1 SWAP2 SSTORE POP POP POP PUSH1 0x0 DUP2 DUP2 MSTORE PUSH1 0x3 PUSH1 0x20 SWAP1 DUP2 MSTORE PUSH1 0x40 DUP1 DUP4 KECCAK256 DUP1 SLOAD PUSH1 0x1 PUSH1 0x1 PUSH1 0xA0 SHL SUB NOT AND CALLER SWAP1 DUP2 OR SWAP1 SWAP2 SSTORE DUP4 MSTORE PUSH1 0x2 SWAP2 DUP3 SWAP1 MSTORE SWAP1 SWAP2 KECCAK256 TIMESTAMP SWAP2 ADD SSTORE PUSH2 0x2D7 PUSH1 0x1 PUSH1 0x0 SSTORE JUMP JUMPDEST PUSH1 0x1 PUSH1 0x1 PUSH1 0xA0 SHL SUB DUP2 AND PUSH1 0x0 SWAP1 DUP2 MSTORE PUSH1 0x2 PUSH1 0x20 MSTORE PUSH1 0x40 DUP2 KECCAK256 PUSH1 0x3 ADD SLOAD DUP2 SWAP1 PUSH2 0xA1D DUP5 PUSH2 0xA2E JUMP JUMPDEST PUSH2 0xA27 SWAP2 SWAP1 PUSH2 0xE9B JUMP JUMPDEST SWAP4 SWAP3 POP POP POP JUMP JUMPDEST PUSH1 0x1 SLOAD PUSH1 0x1 PUSH1 0x1 PUSH1 0xA0 SHL SUB DUP3 AND PUSH1 0x0 SWAP1 DUP2 MSTORE PUSH1 0x2 PUSH1 0x20 DUP2 SWAP1 MSTORE PUSH1 0x40 DUP3 KECCAK256 DUP1 SLOAD SWAP2 ADD SLOAD SWAP2 SWAP3 PUSH2 0xE10 SWAP3 SWAP1 SWAP2 SWAP1 PUSH2 0xA63 SWAP1 TIMESTAMP PUSH2 0xF27 JUMP JUMPDEST PUSH2 0xA6D SWAP2 SWAP1 PUSH2 0xF3A JUMP JUMPDEST PUSH2 0xA77 SWAP2 SWAP1 PUSH2 0xF3A JUMP JUMPDEST PUSH2 0xA81 SWAP2 SWAP1 PUSH2 0xF51 JUMP JUMPDEST SWAP3 SWAP2 POP POP JUMP JUMPDEST PUSH1 0x40 DUP1 MLOAD PUSH1 0x1 PUSH1 0x1 PUSH1 0xA0 SHL SUB DUP5 AND PUSH1 0x24 DUP3 ADD MSTORE PUSH1 0x44 DUP1 DUP3 ADD DUP5 SWAP1 MSTORE DUP3 MLOAD DUP1 DUP4 SUB SWAP1 SWAP2 ADD DUP2 MSTORE PUSH1 0x64 SWAP1 SWAP2 ADD SWAP1 SWAP2 MSTORE PUSH1 0x20 DUP2 ADD DUP1 MLOAD PUSH28 0xFFFFFFFFFFFFFFFFFFFFFFFFFFFFFFFFFFFFFFFFFFFFFFFFFFFFFFFF AND PUSH4 0xA9059CBB PUSH1 0xE0 SHL OR SWAP1 MSTORE PUSH2 0xAEE SWAP1 DUP5 SWAP1 PUSH2 0xB53 JUMP JUMPDEST POP POP POP JUMP JUMPDEST PUSH1 0x2 PUSH1 0x0 SLOAD SUB PUSH2 0xB45 JUMPI PUSH1 0x40 MLOAD PUSH3 0x461BCD PUSH1 0xE5 SHL DUP2 MSTORE PUSH1 0x20 PUSH1 0x4 DUP3 ADD MSTORE PUSH1 0x1F PUSH1 0x24 DUP3 ADD MSTORE PUSH32 0x5265656E7472616E637947756172643A207265656E7472616E742063616C6C00 PUSH1 0x44 DUP3 ADD MSTORE PUSH1 0x64 ADD PUSH2 0x27C JUMP JUMPDEST PUSH1 0x2 PUSH1 0x0 SSTORE JUMP JUMPDEST PUSH1 0x1 PUSH1 0x0 SSTORE JUMP JUMPDEST PUSH1 0x0 PUSH2 0xBA8 DUP3 PUSH1 0x40 MLOAD DUP1 PUSH1 0x40 ADD PUSH1 0x40 MSTORE DUP1 PUSH1 0x20 DUP2 MSTORE PUSH1 0x20 ADD PUSH32 0x5361666545524332303A206C6F772D6C6576656C2063616C6C206661696C6564 DUP2 MSTORE POP DUP6 PUSH1 0x1 PUSH1 0x1 PUSH1 0xA0 SHL SUB AND PUSH2 0xC3B SWAP1 SWAP3 SWAP2 SWAP1 PUSH4 0xFFFFFFFF AND JUMP JUMPDEST SWAP1 POP DUP1 MLOAD PUSH1 0x0 EQ DUP1 PUSH2 0xBC9 JUMPI POP DUP1 DUP1 PUSH1 0x20 ADD SWAP1 MLOAD DUP2 ADD SWAP1 PUSH2 0xBC9 SWAP2 SWAP1 PUSH2 0xF73 JUMP JUMPDEST PUSH2 0xAEE JUMPI PUSH1 0x40 MLOAD PUSH3 0x461BCD PUSH1 0xE5 SHL DUP2 MSTORE PUSH1 0x20 PUSH1 0x4 DUP3 ADD MSTORE PUSH1 0x2A PUSH1 0x24 DUP3 ADD MSTORE PUSH32 0x5361666545524332303A204552433230206F7065726174696F6E20646964206E PUSH1 0x44 DUP3 ADD MSTORE PUSH32 0x6F74207375636365656400000000000000000000000000000000000000000000 PUSH1 0x64 DUP3 ADD MSTORE PUSH1 0x84 ADD PUSH2 0x27C JUMP JUMPDEST PUSH1 0x60 PUSH2 0xC4A DUP5 DUP5 PUSH1 0x0 DUP6 PUSH2 0xC52 JUMP JUMPDEST SWAP5 SWAP4 POP POP POP POP JUMP JUMPDEST PUSH1 0x60 DUP3 SELFBALANCE LT ISZERO PUSH2 0xCCA JUMPI PUSH1 0x40 MLOAD PUSH3 0x461BCD PUSH1 0xE5 SHL DUP2 MSTORE PUSH1 0x20 PUSH1 0x4 DUP3 ADD MSTORE PUSH1 0x26 PUSH1 0x24 DUP3 ADD MSTORE PUSH32 0x416464726573733A20696E73756666696369656E742062616C616E636520666F PUSH1 0x44 DUP3 ADD MSTORE PUSH32 0x722063616C6C0000000000000000000000000000000000000000000000000000 PUSH1 0x64 DUP3 ADD MSTORE PUSH1 0x84 ADD PUSH2 0x27C JUMP JUMPDEST PUSH1 0x0 DUP1 DUP7 PUSH1 0x1 PUSH1 0x1 PUSH1 0xA0 SHL SUB AND DUP6 DUP8 PUSH1 0x40 MLOAD PUSH2 0xCE6 SWAP2 SWAP1 PUSH2 0xFB9 JUMP JUMPDEST PUSH1 0x0 PUSH1 0x40 MLOAD DUP1 DUP4 SUB DUP2 DUP6 DUP8 GAS CALL SWAP3 POP POP POP RETURNDATASIZE DUP1 PUSH1 0x0 DUP2 EQ PUSH2 0xD23 JUMPI PUSH1 0x40 MLOAD SWAP2 POP PUSH1 0x1F NOT PUSH1 0x3F RETURNDATASIZE ADD AND DUP3 ADD PUSH1 0x40 MSTORE RETURNDATASIZE DUP3 MSTORE RETURNDATASIZE PUSH1 0x0 PUSH1 0x20 DUP5 ADD RETURNDATACOPY PUSH2 0xD28 JUMP JUMPDEST PUSH1 0x60 SWAP2 POP JUMPDEST POP SWAP2 POP SWAP2 POP PUSH2 0xD39 DUP8 DUP4 DUP4 DUP8 PUSH2 0xD44 JUMP JUMPDEST SWAP8 SWAP7 POP POP POP POP POP POP POP JUMP JUMPDEST PUSH1 0x60 DUP4 ISZERO PUSH2 0xDB3 JUMPI DUP3 MLOAD PUSH1 0x0 SUB PUSH2 0xDAC JUMPI PUSH1 0x1 PUSH1 0x1 PUSH1 0xA0 SHL SUB DUP6 AND EXTCODESIZE PUSH2 0xDAC JUMPI PUSH1 0x40 MLOAD PUSH3 0x461BCD PUSH1 0xE5 SHL DUP2 MSTORE PUSH1 0x20 PUSH1 0x4 DUP3 ADD MSTORE PUSH1 0x1D PUSH1 0x24 DUP3 ADD MSTORE PUSH32 0x416464726573733A2063616C6C20746F206E6F6E2D636F6E7472616374000000 PUSH1 0x44 DUP3 ADD MSTORE PUSH1 0x64 ADD PUSH2 0x27C JUMP JUMPDEST POP DUP2 PUSH2 0xC4A JUMP JUMPDEST PUSH2 0xC4A DUP4 DUP4 DUP2 MLOAD ISZERO PUSH2 0xDC8 JUMPI DUP2 MLOAD DUP1 DUP4 PUSH1 0x20 ADD REVERT JUMPDEST DUP1 PUSH1 0x40 MLOAD PUSH3 0x461BCD PUSH1 0xE5 SHL DUP2 MSTORE PUSH1 0x4 ADD PUSH2 0x27C SWAP2 SWAP1 PUSH2 0xFD5 JUMP JUMPDEST PUSH1 0x0 PUSH1 0x20 DUP3 DUP5 SUB SLT ISZERO PUSH2 0xDF4 JUMPI PUSH1 0x0 DUP1 REVERT JUMPDEST POP CALLDATALOAD SWAP2 SWAP1 POP JUMP JUMPDEST PUSH1 0x1 PUSH1 0x1 PUSH1 0xA0 SHL SUB DUP2 AND DUP2 EQ PUSH2 0x2D7 JUMPI PUSH1 0x0 DUP1 REVERT JUMPDEST PUSH1 0x0 PUSH1 0x20 DUP3 DUP5 SUB SLT ISZERO PUSH2 0xE22 JUMPI PUSH1 0x0 DUP1 REVERT JUMPDEST DUP2 CALLDATALOAD PUSH2 0xA27 DUP2 PUSH2 0xDFB JUMP JUMPDEST PUSH1 0x20 DUP1 DUP3 MSTORE DUP3 MLOAD DUP3 DUP3 ADD DUP2 SWAP1 MSTORE PUSH1 0x0 SWAP2 SWAP1 PUSH1 0x40 SWAP1 DUP2 DUP6 ADD SWAP1 DUP7 DUP5 ADD DUP6 JUMPDEST DUP3 DUP2 LT ISZERO PUSH2 0xE78 JUMPI DUP2 MLOAD DUP1 MLOAD PUSH1 0x1 PUSH1 0x1 PUSH1 0xA0 SHL SUB AND DUP6 MSTORE DUP7 ADD MLOAD DUP7 DUP6 ADD MSTORE SWAP3 DUP5 ADD SWAP3 SWAP1 DUP6 ADD SWAP1 PUSH1 0x1 ADD PUSH2 0xE4A JUMP JUMPDEST POP SWAP2 SWAP8 SWAP7 POP POP POP POP POP POP POP JUMP JUMPDEST PUSH4 0x4E487B71 PUSH1 0xE0 SHL PUSH1 0x0 MSTORE PUSH1 0x11 PUSH1 0x4 MSTORE PUSH1 0x24 PUSH1 0x0 REVERT JUMPDEST DUP1 DUP3 ADD DUP1 DUP3 GT ISZERO PUSH2 0xA81 JUMPI PUSH2 0xA81 PUSH2 0xE85 JUMP JUMPDEST PUSH4 0x4E487B71 PUSH1 0xE0 SHL PUSH1 0x0 MSTORE PUSH1 0x32 PUSH1 0x4 MSTORE PUSH1 0x24 PUSH1 0x0 REVERT JUMPDEST PUSH1 0x0 PUSH1 0x1 DUP3 ADD PUSH2 0xED6 JUMPI PUSH2 0xED6 PUSH2 0xE85 JUMP JUMPDEST POP PUSH1 0x1 ADD SWAP1 JUMP JUMPDEST PUSH1 0x0 DUP2 PUSH2 0xEEC JUMPI PUSH2 0xEEC PUSH2 0xE85 JUMP JUMPDEST POP PUSH1 0x0 NOT ADD SWAP1 JUMP JUMPDEST PUSH4 0x4E487B71 PUSH1 0xE0 SHL PUSH1 0x0 MSTORE PUSH1 0x41 PUSH1 0x4 MSTORE PUSH1 0x24 PUSH1 0x0 REVERT JUMPDEST PUSH1 0x0 PUSH1 0x20 DUP3 DUP5 SUB SLT ISZERO PUSH2 0xF1C JUMPI PUSH1 0x0 DUP1 REVERT JUMPDEST DUP2 MLOAD PUSH2 0xA27 DUP2 PUSH2 0xDFB JUMP JUMPDEST DUP2 DUP2 SUB DUP2 DUP2 GT ISZERO PUSH2 0xA81 JUMPI PUSH2 0xA81 PUSH2 0xE85 JUMP JUMPDEST DUP1 DUP3 MUL DUP2 ISZERO DUP3 DUP3 DIV DUP5 EQ OR PUSH2 0xA81 JUMPI PUSH2 0xA81 PUSH2 0xE85 JUMP JUMPDEST PUSH1 0x0 DUP3 PUSH2 0xF6E JUMPI PUSH4 0x4E487B71 PUSH1 0xE0 SHL PUSH1 0x0 MSTORE PUSH1 0x12 PUSH1 0x4 MSTORE PUSH1 0x24 PUSH1 0x0 REVERT JUMPDEST POP DIV SWAP1 JUMP JUMPDEST PUSH1 0x0 PUSH1 0x20 DUP3 DUP5 SUB SLT ISZERO PUSH2 0xF85 JUMPI PUSH1 0x0 DUP1 REVERT JUMPDEST DUP2 MLOAD DUP1 ISZERO ISZERO DUP2 EQ PUSH2 0xA27 JUMPI PUSH1 0x0 DUP1 REVERT JUMPDEST PUSH1 0x0 JUMPDEST DUP4 DUP2 LT ISZERO PUSH2 0xFB0 JUMPI DUP2 DUP2 ADD MLOAD DUP4 DUP3 ADD MSTORE PUSH1 0x20 ADD PUSH2 0xF98 JUMP JUMPDEST POP POP PUSH1 0x0 SWAP2 ADD MSTORE JUMP JUMPDEST PUSH1 0x0 DUP3 MLOAD PUSH2 0xFCB DUP2 DUP5 PUSH1 0x20 DUP8 ADD PUSH2 0xF95 JUMP JUMPDEST SWAP2 SWAP1 SWAP2 ADD SWAP3 SWAP2 POP POP JUMP JUMPDEST PUSH1 0x20 DUP2 MSTORE PUSH1 0x0 DUP3 MLOAD DUP1 PUSH1 0x20 DUP5 ADD MSTORE PUSH2 0xFF4 DUP2 PUSH1 0x40 DUP6 ADD PUSH1 0x20 DUP8 ADD PUSH2 0xF95 JUMP JUMPDEST PUSH1 0x1F ADD PUSH1 0x1F NOT AND SWAP2 SWAP1 SWAP2 ADD PUSH1 0x40 ADD SWAP3 SWAP2 POP POP JUMP INVALID LOG2 PUSH5 0x6970667358 0x22 SLT KECCAK256 0xE2 PUSH28 0x56EA0DB1A1934C86C04A5BEA38F795628B3162CD29AD3EB1F490EB1D EXTCODEHASH EXTCODESIZE PUSH5 0x736F6C6343 STOP ADDMOD GT STOP CALLER "
    },
    "gasEstimates": {
      "creation": {
        "codeDepositCost": "831600",
        "executionCost": "infinite",
        "totalCost": "infinite"
      },
      "external": {
        "availableRewards(address)": "infinite",
        "claimRewards()": "infinite",
        "getStakedTokens(address)": "infinite",
        "nftCollection()": "infinite",
        "rewardToken()": "infinite",
        "stakeToken(uint256)": "infinite",
        "stakerAddress(uint256)": "2522",
        "stakers(address)": "6811",
        "withdrawToken(uint256)": "infinite"
      },
      "internal": {
        "calculateRewards(address)": "infinite"
      }
    },
    "methodIdentifiers": {
      "availableRewards(address)": "f854a27f",
      "claimRewards()": "372500ab",
      "getStakedTokens(address)": "63c28db1",
      "nftCollection()": "6588103b",
      "rewardToken()": "f7c618c1",
      "stakeToken(uint256)": "cda6b847",
      "stakerAddress(uint256)": "94067045",
      "stakers(address)": "9168ae72",
      "withdrawToken(uint256)": "50baa622"
    }
  },
  "storageLayout": {
    "storage": [
      {
        "astId": 496,
        "contract": "NftStaking.sol:ERC721Staking",
        "label": "_status",
        "offset": 0,
        "slot": "0",
        "type": "t_uint256"
      },
      {
        "astId": 54,
        "contract": "NftStaking.sol:ERC721Staking",
        "label": "rewardsPerHour",
        "offset": 0,
        "slot": "1",
        "type": "t_uint256"
      },
      {
        "astId": 59,
        "contract": "NftStaking.sol:ERC721Staking",
        "label": "stakers",
        "offset": 0,
        "slot": "2",
        "type": "t_mapping(t_address,t_struct(Staker)51_storage)"
      },
      {
        "astId": 63,
        "contract": "NftStaking.sol:ERC721Staking",
        "label": "stakerAddress",
        "offset": 0,
        "slot": "3",
        "type": "t_mapping(t_uint256,t_address)"
      }
    ],
    "types": {
      "t_address": {
        "encoding": "inplace",
        "label": "address",
        "numberOfBytes": "20"
      },
      "t_array(t_struct(StakedToken)40_storage)dyn_storage": {
        "base": "t_struct(StakedToken)40_storage",
        "encoding": "dynamic_array",
        "label": "struct ERC721Staking.StakedToken[]",
        "numberOfBytes": "32"
      },
      "t_mapping(t_address,t_struct(Staker)51_storage)": {
        "encoding": "mapping",
        "key": "t_address",
        "label": "mapping(address => struct ERC721Staking.Staker)",
        "numberOfBytes": "32",
        "value": "t_struct(Staker)51_storage"
      },
      "t_mapping(t_uint256,t_address)": {
        "encoding": "mapping",
        "key": "t_uint256",
        "label": "mapping(uint256 => address)",
        "numberOfBytes": "32",
        "value": "t_address"
      },
      "t_struct(StakedToken)40_storage": {
        "encoding": "inplace",
        "label": "struct ERC721Staking.StakedToken",
        "members": [
          {
            "astId": 37,
            "contract": "NftStaking.sol:ERC721Staking",
            "label": "staker",
            "offset": 0,
            "slot": "0",
            "type": "t_address"
          },
          {
            "astId": 39,
            "contract": "NftStaking.sol:ERC721Staking",
            "label": "tokenId",
            "offset": 0,
            "slot": "1",
            "type": "t_uint256"
          }
        ],
        "numberOfBytes": "64"
      },
      "t_struct(Staker)51_storage": {
        "encoding": "inplace",
        "label": "struct ERC721Staking.Staker",
        "members": [
          {
            "astId": 42,
            "contract": "NftStaking.sol:ERC721Staking",
            "label": "amountStaked",
            "offset": 0,
            "slot": "0",
            "type": "t_uint256"
          },
          {
            "astId": 46,
            "contract": "NftStaking.sol:ERC721Staking",
            "label": "stakedTokens",
            "offset": 0,
            "slot": "1",
            "type": "t_array(t_struct(StakedToken)40_storage)dyn_storage"
          },
          {
            "astId": 48,
            "contract": "NftStaking.sol:ERC721Staking",
            "label": "timeOfLastUpdate",
            "offset": 0,
            "slot": "2",
            "type": "t_uint256"
          },
          {
            "astId": 50,
            "contract": "NftStaking.sol:ERC721Staking",
            "label": "unclaimedRewards",
            "offset": 0,
            "slot": "3",
            "type": "t_uint256"
          }
        ],
        "numberOfBytes": "128"
      },
      "t_uint256": {
        "encoding": "inplace",
        "label": "uint256",
        "numberOfBytes": "32"
      }
    }
  },
  "userdoc": {
    "kind": "user",
    "methods": {},
    "version": 1
  }
}